:100000000C9443000C9460000C9460000C9460000D
:100010000C9460000C9460000C9460000C946000E0
:100020000C9460000C9460000C9460000C946000D0
:100030000C9460000C9460000C94F5140C94600017
:100040000C9460000C9460000C946F140C94A21437
:100050000C9460000C9460000C9460000C946000A0
:100060000C9460000C94600087128F12E51301134A
:10007000E513E513E513E513E513E5138D1393136A
:10008000A613B913D01311241FBECFEFD8E0DEBFE3
:10009000CDBF11E0A0E0B1E0EEE9FBE202C00590C7
:1000A0000D92A832B107D9F726E0A8E2B1E001C06D
:1000B0001D92A236B207E1F70E9428150C94CD15C7
:1000C0000C940000CF93DF9342305105C0F0DB0168
:1000D000FC019A01CD91DD91C193D1932250310958
:1000E00022303105B8F79A01225031092E7F2E5F58
:1000F0003F4F820F931F620F731F417055274115A9
:10010000510549F0DB01FC01480F591F9D91919366
:10011000E417F507D9F7DF91CF9108950F931F9357
:10012000DC01FB01628D738D80E090E02C91233027
:1001300059F40489158920E030E09801112700273F
:10014000602B712B822B932B1F910F9108950F938E
:10015000CF93DF93EC019A01AB01BC016A5C7F4F46
:1001600001E089810E949611811123C0FE01EC5C9F
:10017000FD4F8081918185359A4AE9F4E85CF14030
:1001800080819181A281B381BB2786349144A445AB
:10019000B10599F0C857DF4F488159816A817B8149
:1001A000772781E0463451446445710539F480E095
:1001B00005C083E003C082E001C080E0DF91CF9101
:1001C0000F9108958F929F92AF92BF92CF92DF923C
:1001D000EF92FF920F93CF93DF93FC0124812223B0
:1001E00009F447C0EC01C2A8D3A8E4A8F5A84C01C3
:1001F000F6E38F0E911C01E0A7019601B4018981FD
:100200000E94E911811137C01C828EA19FA1A8A56F
:10021000B9A5C816D906EA06FB0678F14E8D5F8DA2
:1002200068A179A1840F951FA61FB71FC816D9060C
:10023000EA06FB0620F5AB80B12C82E0A816B104DB
:1002400000F18E8D9F8DA8A1B9A1C80ED91EEA1EFE
:10025000FB1E01E0A7019601B40189810E94E9110A
:10026000E1E0AE1AB108F1E0AF16B10451F780E059
:1002700009C080E007C081E005C080E003C080E0E5
:1002800001C080E0DF91CF910F91FF90EF90DF9060
:10029000CF90BF90AF909F908F900895CF92DF92B4
:1002A000EF92FF920F931F93CF93DF93FC01C2A8AD
:1002B000D3A8E4A8F5A8C416D506E606F706C1F04B
:1002C0006A017B01EC010E94E200182F811112C02B
:1002D00001E0A7019601BE016A5C7F4F89810E94FF
:1002E0009611811109C0CAAADBAAECAAFDAA05C011
:1002F00010E003C011E001C011E0812FDF91CF9128
:100300001F910F91FF90EF90DF90CF90089500978D
:10031000C9F0DC01ED91FC9111973097A9F0208193
:100320002223A1F02681378112968D919C911397FB
:100330002817390769F481810E948F1180FD0AC056
:1003400080E0089589E0089589E0089589E008959E
:1003500089E0089583E008952F923F924F925F9233
:100360006F927F928F929F92AF92BF92CF92DF92C5
:10037000EF92FF920F931F93CF93DF93CDB7DEB72A
:100380002E970FB6F894DEBF0FBECDBFDC01ED9106
:10039000FC911197208130E0205331092A3031053A
:1003A00038F451815A3321F43296ED93FC9303C013
:1003B0002091280130E0FB0111821082232B09F0EB
:1003C0000AC220912B0130912C013E872D872115E7
:1003D000310509F402C2142F31832083D9018C9195
:1003E000882369F011968C910E948F1180FD07C0BF
:1003F000112309F4F4C182FFF4C18AE08EC2ED85B5
:10040000FE851082118280E00E94BB1080FDEBC14E
:10041000112311F082FDE9C140E050E0BA018D8561
:100420009E850E94A7008130B9F4ED85FE85E850D5
:10043000FE4F8081882309F4DAC1ED85FE85E45002
:10044000FE4FC080D180E280F380B701A6018D8588
:100450009E850E94A70003C0C12CD12C7601833059
:1004600009F4C7C18111C7C1ED85FE85EF5BFF4F60
:10047000808191818115924009F0BFC1ED85FE8593
:10048000E45BFF4F40805180612C712C411451047A
:100490006104710441F4ED85FE85E65AFF4F40800A
:1004A000518062807380AD85BE855E964D925D926F
:1004B0006D927C929197FD01EA5BFF4FA081ED85E3
:1004C000FE85A3838FEF8A0F823008F098C1ED5B21
:1004D000FF4F1081ED85FE851283112309F491C130
:1004E000812F90E09C012150310982239323892B95
:1004F00009F089C1E95BFF4F20803180ED85FE85E1
:1005000031862086C1018F709927892B09F07DC122
:10051000E75BFF4F80809180A12CB12C8114910466
:10052000A104B10441F4ED85FE85EA5AFF4F8080B5
:100530009180A280B380ED85FE85EC5BFF4F20812A
:1005400031813A832983232B09F461C1B0E0A301EF
:1005500092010E94B31569877A878B879C87A9814E
:10056000BA81CD01A0E0B0E08D839E83AF83B887D0
:10057000C101929582958F7089279F7089274D813F
:100580005E816F817885480F591F611D711D8985B6
:100590009A85AB85BC85840F951FA61FB71F8983DD
:1005A0009A83AB83BC8388169906AA06BB0608F417
:1005B00030C1C501B40129813A814B815C81621B44
:1005C000730B840B950B212F30E040E050E00E942C
:1005D0008B15DA01C901211531054105510509F4D1
:1005E0001AC1263F6FE036074105510510F012E0B1
:1005F00001C011E0863F9F4FA105B10508F015C16C
:1006000049015A01F2E08F0E911CA11CB11CAD856D
:10061000BE855A968D929D92AD92BC925D97FD01DA
:10062000C2A2D3A2E4A2F5A28D819E81AF81B8853A
:100630008C0D9D1DAE1DBF1D86A397A3A0A7B1A7BE
:1006400049815A816B817C814C0D5D1D6E1D7F1D22
:1006500046A757A760AB71AB133079F5232809F093
:10066000DCC0ED85FE85EE59FF4F80819181A2812E
:10067000B381ED85FE8582A793A7A4A7B5A7880CB3
:10068000991CAA1CBB1C880C991CAA1CBB1CFFEF44
:100690008F0EF1E09F1EA11CB11C072E79E0B694CD
:1006A000A794979487947A95D1F7702D481459049C
:1006B0006A047B0408F4B3C006C1232809F4B1C05E
:1006C00029853A854B855C85820F931FA41FB51F32
:1006D000ED85FE8582A793A7A4A7B5A7123029F4BC
:1006E000880C991CAA1CBB1CD8C0A3E0B0E0A501D3
:1006F00094010E94B315DC01CB01B695A79597959F
:100700008795F1E08F229924AA24BB24880E991E94
:10071000AA1EBB1EC2C0ED85FE85EC5CFD4F80812C
:10072000918185359A4AA1F5ED85FE8586A997A91F
:10073000A0ADB1AD82359245A146B14459F5ED85E4
:10074000FE85E65EFD4F80819181A281B381823773
:100750009247A144B14601F5ED85FE85EE5DFD4F62
:1007600080819181A281B381ED85FE858287938707
:10077000A487B587E25EFD4F80819181A281B3811C
:10078000ED85FE8586879787A08BB18B13E005C02A
:1007900013E003C013E001C013E0AD85BE851C93D8
:1007A0008091290190912A01019690932A018093CA
:1007B000290117969C938E931697FD0112AA13AAEE
:1007C00014AA15AA148256961D921D921D921C926F
:1007D000599780E0A2C08BE0A0C08CE09EC080E072
:1007E0009CC080E09AC083E098C08AE096C08DE00B
:1007F00094C081E092C08DE090C08DE08EC08DE00D
:100800008CC08DE08AC08DE088C08DE086C08DE010
:1008100084C08DE082C08DE080C08DE07EC08DE020
:100820007CC08DE07AC08DE078C049015A01B2E009
:100830008B0E911CA11CB11CED85FE85828E938EC2
:10084000A48EB58EC2A2D3A2E4A2F5A28D819E8110
:10085000AF81B8858C0D9D1DAE1DBF1D86A397A3CE
:10086000A0A7B1A749815A816B817C814C0D5D1D88
:100870006E1D7F1D46A757A760AB71ABEFCE8FEF04
:100880009FEFDC01ED85FE8586879787A08BB18B76
:10089000128613861486158680CFBFEF8B0EB1E0CB
:1008A0009B1EA11CB11C072E79E0B694A7949794C7
:1008B00087947A95D1F7702D481459046A047B0403
:1008C00008F4B1CFDCCF8FEF9FEFDC01ED85FE8523
:1008D00086879787A08BB18BDF01128613861486DB
:1008E00015861582EA59FF4F80819181A7019601F3
:1008F000280F391F411D511DFD01228B338B448B65
:10090000558B01E0BD016A5C7F4F81810E94961189
:10091000882309F400CF13E040CF2E960FB6F89449
:10092000DEBF0FBECDBFDF91CF911F910F91FF9022
:10093000EF90DF90CF90BF90AF909F908F907F907F
:100940006F905F904F903F902F900895CF92DF92DD
:10095000EF92FF92FC019A01AB012250310941094B
:100960005109C28CD38CE48CF58C82E0C81AD10872
:10097000E108F1082C153D054E055F0568F4A281DC
:10098000B0E00E94B315C6A4D7A4E0A8F1A86C0DEE
:100990007D1D8E1D9F1D03C060E070E0CB01FF90A8
:1009A000EF90DF90CF900895AF92BF92CF92DF92F9
:1009B000EF92FF921F93CF93DF93EC016A017B01CB
:1009C000423051056105710508F4AAC08A8D9B8DDE
:1009D000AC8DBD8D481759076A077B0708F0A5C085
:1009E0008881823009F44CC0833009F46BC08130B7
:1009F00009F0A0C05A01B694A794A40EB51EC50173
:100A0000892F992786954EA15FA168A579A5480FE2
:100A1000591F611D711DCE010E944E0181118EC0B2
:100A2000F501F170EC0FFD1F16A98FEFA81AB80A97
:100A3000C501892F992786954EA15FA168A579A543
:100A4000480F591F611D711DCE010E944E01811179
:100A500079C081E0B822CA0DDB1D8EA9612F70E03C
:100A6000782BC0FE09C0729562956F7067277F7002
:100A7000672780E090E071C07F7080E090E06DC0FB
:100A8000452F562F672F77278EA19FA1A8A5B9A51F
:100A9000480F591F6A1F7B1FCE010E944E01811112
:100AA00055C0CC0CDD1CEE1CFF1CE894C0F881E0A6
:100AB000D822EE24FF24CC0DDD1D6EA97FA980E095
:100AC00090E04BC08EA19FA1A8A5B9A5689416F887
:100AD00076956795579547951694D1F7480F591F06
:100AE0006A1F7B1FCE010E944E01811133C0CC0CC6
:100AF000DD1CEE1CFF1CCC0CDD1CEE1CFF1C8CEF67
:100B0000C82281E0D822EE24FF24FE01EC0DFD1D59
:100B100086A997A9A0ADB1ADBC01CD019F701DC044
:100B200061E070E080E090E018C061E070E080E09B
:100B300090E013C06FEF7FEFCB010FC06FEF7FEF3F
:100B4000CB010BC06FEF7FEFCB0107C06FEF7FEFE3
:100B5000CB0103C06FEF7FEFCB01DF91CF911F91EE
:100B6000FF90EF90DF90CF90BF90AF900895EF92FD
:100B7000FF920F931F93CF93DF93EC018B017D8343
:100B80006C834E815F8168857985413051056105AF
:100B9000710509F493C0E881F981828D938DA48D4C
:100BA000B58D481759076A077B0708F089C04115BA
:100BB00051056105710551F58081833049F442A5E5
:100BC00053A564A575A54115510561057105F1F49D
:100BD0001A861B861C861D86808591850817190735
:100BE00008F070C082A593A5A4A5B5A5980132957B
:100BF00022952F7023273F702327820F931FA11D5B
:100C0000B11D8E879F87A88BB98B44C0E28080E19D
:100C1000E89E700111240E151F0518F18881998135
:100C20000E94D404AB01BC014F3F8FEF5807680707
:100C3000780709F449C0423051056105710508F48F
:100C400045C0E881F981828D938DA48DB58D4817BB
:100C500059076A077B07E0F50E191F090E151F05D6
:100C6000E8F64A875B876C877D87888199810E9437
:100C7000A6049801329522952F7023273F702327D1
:100C8000DC01CB01820F931FA11DB11D8E879F87B1
:100C9000A88BB98B0F701127000F111F02951295A9
:100CA000107F1027007F10270A5C1F4F88819981D1
:100CB000080F191F1B8B0A8B80E00BC082E009C054
:100CC00082E007C082E005C081E003C082E001C08D
:100CD00082E0DF91CF911F910F91FF90EF900895E7
:100CE0004F925F926F927F92AF92BF92CF92DF92BC
:100CF000EF92FF920F931F93CF93DF93EC016A0162
:100D00007B0128013901423051056105710508F464
:100D1000D9C08A8D9B8DAC8DBD8D481759076A0748
:100D20007B0708F0D1C08881823009F463C083302A
:100D300009F485C0813009F0BDC05A01B694A7946A
:100D4000A40EB51EC501892F992786954EA15FA1D6
:100D500068A579A5480F591F611D711DCE010E941C
:100D60004E01182F8111ABC0C5019170C0FE23C088
:100D7000FE01E80FF91F86A9282F2F7030E1439E4E
:100D8000C0011124822B86AB8FEFA81AB80A81E02C
:100D90008C83C501892F992786954EA15FA168A5EF
:100DA00079A5480F591F611D711DCE010E944E018A
:100DB000811182C08BC0FE01E80FF91F46AA3FEFE8
:100DC000A31AB30A81E08C83C501892F99278695E0
:100DD0004EA15FA168A579A5480F591F611D711D1E
:100DE000CE010E944E01811169C07BC0EC0FFD1F36
:100DF00046AA65C0452F562F672F77278EA19FA142
:100E0000A8A5B9A5480F591F6A1F7B1FCE010E94D4
:100E10004E01182F811153C0CC0CDD1CEE1CFF1CA1
:100E2000E894C0F881E0D822EE24FF2436E3C30E14
:100E3000D11CFE01EC0DFD1D5182408240C08EA1EF
:100E40009FA1A8A5B9A5689416F8769567955795BA
:100E500047951694D1F7480F591F6A1F7B1FCE0183
:100E60000E944E01182F81112AC0CC0CDD1CEE1CF3
:100E7000FF1CCC0CDD1CEE1CFF1C8CEFC82281E09B
:100E8000D822EE24FF2436E3C30ED11CFE01EC0D64
:100E9000FD1D80819181A281B38188279927AA278E
:100EA000B07F482A592A6A2A7B2A4082518262826C
:100EB000738205C012E003C0182F01C0182F81E013
:100EC0008C831CC012E01AC012E018C0F501F1704A
:100ED000689413F876946794579447941694D1F7CE
:100EE00085CFF501F170DE01AE0FBF1FD6969C9144
:100EF000907F852D8F70492E482A78CF812FDF91E2
:100F0000CF911F910F91FF90EF90DF90CF90BF9006
:100F1000AF907F906F905F904F9008952F923F9287
:100F20004F925F926F927F928F929F92AF92BF92F9
:100F3000CF92DF92EF92FF920F931F93CF93DF93A5
:100F4000EC012A013B014115510561057105B9F418
:100F50008A849B84AC84BD8481149104A104B1046F
:100F600029F18A8D9B8DAC8DBD8D88169906AA06B8
:100F7000BB0600F1812C912C540183941BC00E946C
:100F8000D4046B017C01623071058105910508F480
:100F900091C08A8D9B8DAC8DBD8DC816D906EA0691
:100FA000FB0608F48CC05301420104C0812C912C33
:100FB00054018394750164016894222421F8312C32
:100FC00000E010E08FEFC81AD80AE80AF80A8A8D04
:100FD0009B8DAC8DBD8DC816D906EA06FB0658F070
:100FE00022E082169104A104B10408F46DC0C22C61
:100FF000D32CE02EF12EB701A601CE010E94D4041D
:10100000611571058105910599F06F3F2FEF72070A
:101010008207920709F45DC0613071058105910571
:1010200009F45CC0C814D904EA04FB0459F65BC097
:101030008C2C9D2CAE2CBF2C0FEF1FEF2FEF3FE021
:10104000B701A601CE010E94700681112CC0411487
:1010500051046104710459F00C2D1D2D2E2D3F2DCE
:10106000B301A201CE010E94700681111CC08A86C4
:101070009B86AC86BD868E859F85A889B9898F3F62
:101080002FEF9207A207B20799F10197A109B109C1
:101090008E879F87A88BB98B81E08D836C2D7D2DEA
:1010A0008E2D9F2D2EC0813041F161E070E080E0F7
:1010B00090E027C061E070E080E090E022C06C2DFD
:1010C0007D2D8E2D9F2D1DC060E070E080E090E0B2
:1010D00018C06FEF7FEF8FEF9FEF13C061E070E0FC
:1010E00080E090E00EC060E070E080E090E009C039
:1010F0006C2D7D2D8E2D9F2D04C06FEF7FEF8FEF18
:101100009FEFDF91CF911F910F91FF90EF90DF90B4
:10111000CF90BF90AF909F908F907F906F905F9097
:101120004F903F902F9008958F929F92AF92BF92D1
:10113000CF92DF92EF92FF920F931F93CF93DF93A3
:10114000DC011496CD91DC911597219609F402C12A
:101150001E968D909D90AD90BC90519781149104F6
:10116000A104B10409F4F8C07B018C016E01BFE059
:10117000CB22DD24C114D10409F0D0C0EFEF8E1AC8
:101180009E0AAE0ABE0ADC011E968D929D92AD9219
:10119000BC9251971A964D915D916D917C911D97DE
:1011A000411551056105710549F4ED91FC9180856A
:1011B0009185C817D90708F0D1C0B0C0DC01ED9106
:1011C000FC91228130E021503109CE019295829527
:1011D0008F7089279F70892728233923232B09F0B3
:1011E0009DC0CF010E94D4044B015C0162307105A7
:1011F0008105910508F4B4C06F3F7F4F8F4F9F4F1B
:1012000009F4B0C0D801ED91FC91828D938DA48D2D
:10121000B58D88169906AA06BB0608F46DC0EF289E
:1012200009F4A2C0D8011A964D915D916D917C91FF
:101230001D97CF010E948E074B015C01611571055E
:101240008105910509F492C0613071058105910510
:1012500009F48EC06F3F7F4F8F4F9F4F09F48AC0B4
:10126000D8018D919C910E94E200811185C0F80106
:1012700080819181FC01F6968A5C9D4F1192E8175E
:10128000F907E1F7D801ED90FC90B501A401C70181
:101290000E94A604F70162AB73AB84AB95ABF12C53
:1012A000EE24E39417C0E482D8018D919C910E94B2
:1012B000E200811163C0D801ED91FC9182A993A94C
:1012C000A4A9B5A90196A11DB11D82AB93ABA4AB96
:1012D000B5ABF394D801ED91FC918281F81618F327
:1012E00082A993A9A4A9B5A98F199109A109B10946
:1012F00082AB93ABA4ABB5ABF80182869386A48690
:10130000B586B501A401808191810E94A604D8010F
:101310001E966D937D938D939C935197F801D58381
:10132000C483CC0CDD1CCC0CDD1CCC0CDD1CCC0C2B
:10133000DD1CCC0CDD1CF6E3CF0ED11CD8018D9149
:101340009C911197C80ED91E5396DC92CE9252975B
:1013500080E015C084E013C084E011C084E00FC0B9
:1013600082E00DC081E00BC084E009C087E007C0C7
:1013700082E005C081E003C081E001C081E0DF912F
:10138000CF911F910F91FF90EF90DF90CF90BF9082
:10139000AF909F908F9008952F923F924F925F92BF
:1013A0006F927F928F929F92AF92BF92CF92DF9275
:1013B000EF92FF920F931F93CF93DF9300D000D053
:1013C000CDB7DEB78C016B01DB018C918F3211F050
:1013D0008C3549F4BFEFCB1ADB0AF801168217826D
:1013E000108611860CC0D801ED91FC9186899789F1
:1013F000A08DB18DF80186839783A087B187D60130
:101400008C91803248F460E070E0C8010E94B7051A
:10141000F801138A128A5DC16894BB24B5F80F2EB7
:10142000FEE28F2EF02D212CA12C912C6894772494
:1014300073F8412C312C79824A821C830B83572C00
:10144000D6012B813C81FD018D918F32E1F38C35EA
:10145000D1F33C832B83D90154966D917C915597A0
:10146000DB01CB010B96BD92A817B907E1F73C83CE
:101470002B8380818E3251F06F01EA2CF92C2A2DBA
:10148000392D652C742C032DDF011DC0DB018C92DE
:1014900081818E3249F411968C9282818E3209F4C8
:1014A0006FC023E0322D02C022E030E08F3209F419
:1014B000CFC08C3509F4CCC0813208F0E2C0C3C083
:1014C000FB018387E0C02F5F3F4F1D91113208F46D
:1014D000D0C01F3209F4D1C01C3509F4CEC01E3271
:1014E00009F4BBC0E614F70408F0CBC00AC0000F33
:1014F000000FE980FA800F2EFBE06F2EF02D712C8B
:10150000E2CF11230CF4BDC0412F50E0423251050F
:10151000B9F1E0E1F1E08191882309F4A4C090E001
:1015200048175907C1F72CC0026006C08FE9810F28
:101530008A3110F401601052FB01EE0DFF1D108383
:10154000F70131967F01BFCFEF2809F49AC0DB0184
:101550009C91953E11F495E09C93B8E06B16710454
:1015600011F4000F000F902F9370913009F48061F7
:10157000902F9C70943009F48860FB01838783C0AE
:1015800086E0A7C00B811C81D8011E964D915D910C
:101590006D917C9151978D919C910E944E0181118A
:1015A00084C0F80162897389DB019C91992309F455
:1015B00089C01B969C9193FD12C044895589FB01FB
:1015C000DA019B01255F3F4F780104C0E217F30762
:1015D00009F463C011919D911917C1F387016A2D18
:1015E000792DC8010E949408882371F21C830B8313
:1015F0005EC095FF0CC0EB81FC81168217821086BD
:101600001186138A128A92FF1BCF80E062C092FD7E
:1016100016C085E05EC0DB011B968C9184FF11C073
:10162000EB81FC81808191810E948E00AB81BC8125
:1016300016966D937D938D939C93199701CF84E0BB
:1016400048C085E046C06F01C20ED31E84E238CF89
:101650006F01C20ED31E8B2D33CFE8E06E167104DE
:1016600009F445CF8DCF8FEB810F8A3108F45CCF21
:101670005DCFC20ED31E84E067CFC20ED31E832D72
:1016800063CF86E026C06A2D792D8B819C810E94D4
:10169000B705882309F476CF0AC0FC82EB82DA0111
:1016A0001B969C9192FFB7CF14C01C830B83AB8118
:1016B000BC815496ED91FC9155979385843009F443
:1016C00098CF07C01C830B830488F589E02D938590
:1016D00090CF0F900F900F900F90DF91CF911F91AF
:1016E0000F91FF90EF90DF90CF90BF90AF909F90C1
:1016F0008F907F906F905F904F903F902F900895C4
:10170000811112C0E0912B01F0912C01309709F06A
:1017100010826115710511F0FB01108270932C018C
:1017200060932B0180E008958BE008952F923F9203
:101730004F925F926F927F928F929F92AF92BF92E1
:10174000CF92DF92EF92FF920F931F93CF93DF938D
:10175000CDB7DEB7AE970FB6F894DEBF0FBECDBFE4
:101760007CA36BA3009709F463C1142F7C01DC01F7
:101770001D921C924E71BE016F5F7F4FCE0183960A
:101780000E94AC0181119FC1B12FBF713B2ECE01D0
:1017900047969E8B8D8B6BA17CA146970E94CC09AE
:1017A000CB88DC88811150C1C114D10409F047C134
:1017B00041C1843009F07BC160E070E0CE01019648
:1017C0000E94B705811145C14F85588969897A8979
:1017D00089819A810E944E0181113BC1EB89FC896C
:1017E0008081853E09F43EC1882309F43BC161E054
:1017F00070E0CE0101960E949408882329F329C144
:10180000EB89FC89CF0180961192E817F907E1F77F
:101810006D897E894BE050E08B899C890E94620033
:10182000E981FA8181E08483E32DE8603E2ECB8854
:10183000DC8808C0D6011B968C91817109F01DC10E
:1018400012FD1DC133FEB7C00E948615F6016687E2
:101850007787808B918B1386148E158E168E178E3C
:10186000E981FA81FEA3EDA3B601CF010E948E00AB
:101870004B015C01D6015B961C921E925A975596BD
:101880001C921E92549781E0EDA1FEA184838114E5
:101890009104A104B10409F48EC022A933A944A97A
:1018A00055A92BA73CA74DA75EA7B2E08B169104C4
:1018B000A104B10408F4E8C0828D938DA48DB58D88
:1018C00088169906AA06BB0608F0E0C08FA298A663
:1018D000A9A6BAA62224239443C04FA158A569A55E
:1018E0007AA58DA19EA10E94D4042B013C01611513
:1018F00071058105910509F443C0613071058105C9
:10190000910509F4C5C06F3F7F4F8F4F9F4F09F47A
:10191000C1C000E010E098014FA158A569A57AA5C3
:101920008DA19EA10E9470068111B5C0EDA1FEA1FE
:1019300086859785A089B1898F3FFFEF9F07AF0705
:10194000BF0751F00196A11DB11DEDA1FEA1868733
:101950009787A08BB18B25824FA258A669A67AA63D
:10196000EDA1FEA1828D938DA48DB58D2FA138A5FB
:1019700049A55AA5281739074A075B0708F4ADCFD0
:1019800089819A8131E0831A9108A108B108DC01AC
:101990001A968D929D92AD92BC921D974BA55CA517
:1019A0006DA57EA50E944E01882339F08CC011FFE1
:1019B00002C080FD74C033FE03C0B32DB0623B2E65
:1019C000E981FA8182A993A9A4A9B5A9F701828F17
:1019D000938FA48FB58FD78EC68ED70114963C9265
:1019E000A980BA80B601C5010E948E00F701668702
:1019F0007787808B918BF601848D958DA68DB78D21
:101A0000F70182879387A487B5871682178210868D
:101A10001186168A178A108E118EB182A082D50186
:101A200016968D919C9117979383828380E04BC08B
:101A300089E049C0412F4C71C9F586E033C0812F40
:101A40008C7109F0F7CE39C0412F4C7109F0B1CE3D
:101A500029C0B32DB8603B2ECB88DC88882309F4DD
:101A6000F1CE20C04F85588969897A8989819A8108
:101A70000E944E0181111BC0C3CE87E001C088E0E7
:101A8000882309F498CF1FC082E005C082E003C01C
:101A900082E001C081E0882309F48FCF14C087E081
:101AA00001C084E0882309F498CF0DC086E0E32DBF
:101AB000E8603E2ECB88DC88F5CFD6011B968C9152
:101AC00084FDEFCF74CFAE960FB6F894DEBF0FBE95
:101AD000CDBFDF91CF911F910F91FF90EF90DF90DD
:101AE000CF90BF90AF909F908F907F906F905F90BE
:101AF0004F903F902F9008952F923F924F925F9278
:101B00006F927F928F929F92AF92BF92CF92DF920D
:101B1000EF92FF920F931F93CF93DF93EC014B0152
:101B20006A015901F901118210820E948701811115
:101B300018C18C8188230CF40FC180FF0FC18A85E6
:101B40009B85AC85BD854E815F8168857985841BC9
:101B5000950BA60BB70BA60160E070E08417950704
:101B6000A607B70708F46C01C114D10409F4F8C042
:101B70004E815F8168857985DB01CA019170AA2752
:101B8000BB27892B8A2B8B2B09F0A0C0E881F98118
:101B900012811150DB01CA01072E79E0B695A79595
:101BA000979587957A95D1F7702D182349F5452B90
:101BB000462B472B29F46E857F858889998907C034
:101BC0004A895B896C897D89CF010E94D404623087
:101BD00071058105910528F48C8180688C8382E0F1
:101BE000C0C06F3FFFEF7F078F079F0729F48C81ED
:101BF00080688C8381E0B5C06A8B7B8B8C8B9D8BDE
:101C0000288039804A895B896C897D89C1010E945D
:101C1000A604611571058105910529F48C81806800
:101C20008C8382E09EC02B013C01410E511C611C43
:101C3000711C7601EF2CFF24E694E114F10409F401
:101C400041C0F1014281242F30E0C701810F911D75
:101C50002817390718F47901E11AF1080E2DA301AC
:101C60009201B401F10181810E949611882329F02B
:101C70008C8180688C8381E074C0E881F9818481E3
:101C80008823E1F082A993A9A4A9B5A9841995098B
:101C9000A609B709A70160E070E084179507A607B9
:101CA000B70760F4BF016A5C7F4F982F8827990FB0
:101CB00040E052E0880D991D0E946200FE2CEE2447
:101CC000FF0C2FC04E8A5F8A688E798E2E813F81ED
:101CD000317080E092E0821B930B76018C159D059C
:101CE00008F47C014E895F89688D798D888199819E
:101CF0000E944E01882329F08C8180688C8381E0CA
:101D000030C08E819F81A885B9859170AA27BB2795
:101D1000C69668817981680F791FA701C4010E9466
:101D200062008E0C9F1C8E819F81A885B9858E0DC7
:101D30009F1DA11DB11D8E839F83A887B987F501C3
:101D4000808191818E0D9F1D91838083CE18DF0845
:101D500009F00ECF80E005C082E003C087E001C03B
:101D600080E0DF91CF911F910F91FF90EF90DF9076
:101D7000CF90BF90AF909F908F907F906F905F902B
:101D80004F903F902F9008950F931F93CF93DF9321
:101D9000EC010E948701982F811191C08C8185FFF1
:101DA0008EC04A8D5B8D6C8D7D8D888199810E945E
:101DB0004E01982F811183C00E8D1F8DF8018385F0
:101DC000806283878A859B85AC85BD85848F958F4E
:101DD000A68FB78F8E859F85A889B989938F828FAB
:101DE000B58BA48B0E948615F801668B778B808F4C
:101DF000918F138A128A8C818F7D8C83E881F9817F
:101E000081E084830990D881C02DCE010E94E20038
:101E1000982F811154C08881833009F046C08D818C
:101E2000882309F442C01AAA1BAA1CAA1DAABE0133
:101E30006A5C7F4FFB01CE018A5C9D4F1192E817CF
:101E4000F907E1F785E59AEAFE01EC5CFD4F918325
:101E5000808382E592E5A1E6B1E48EAB9FABA8AFAB
:101E6000B9AF82E792E7A1E4B1E67A9780839183E4
:101E7000A283B3838E859F85A889B9893496808390
:101E80009183A283B3838A859B85AC85BD85349677
:101E900080839183A283B3832A893B894C895D899E
:101EA00001E089810E94E9111D8240E050E060E07C
:101EB00089810E94551291E0811101C090E0892F23
:101EC000DF91CF911F910F910895CF93DF93EC0194
:101ED0000E94C40E811102C019821882DF91CF9135
:101EE00008958F929F92AF92BF92CF92DF92EF921E
:101EF000FF920F931F93CF93DF9300D000D0CDB705
:101F0000DEB7882E992E5A01082F192FE12CF12CBB
:101F10006B0181E0C81AD1081BC09E012D5F3F4FA5
:101F200041E050E0BE016F5F7F4FC5010E947C0D14
:101F30002B813C812130310571F429810F5F1F4FC6
:101F4000F80131972083EFEFEE1AFE0A2A3019F0DC
:101F5000EC14FD0414F3F8011082EF2819F0882D19
:101F6000992D02C080E090E00F900F900F900F909D
:101F7000DF91CF911F910F91FF90EF90DF90CF9065
:101F8000BF90AF909F908F9008951CBC84B1837DCB
:101F900084B985B1837D85B908958EBD0DB407FEE2
:101FA000FDCF8EB508952A9A8FEF0E94CD0F089528
:101FB0002A988FEF0E94CD0F82E380932E018FEF3E
:101FC0000E94CD0F8F3F49F080912E018111F7CFF4
:101FD0000E94D30F80E090E0089581E090E00895A2
:101FE0000F931F93CF93DF93EC018B0184E18093D8
:101FF0002F018FEF0E94CD0F8F3F39F490912F0169
:102000009111F7CF80E090E020C08E3FE1F48FEF98
:102010008EBD0DB407FEFDCF9EB598838EBD0DB469
:1020200007FEFDCF22969EB5FE01319790830250A8
:10203000110971F78FEF0E94CD0F8FEF0E94CD0F26
:1020400081E090E002C080E090E0DF91CF911F91AD
:102050000F910895FF920F931F93CF93DF93C82F93
:10206000D42F152F062FF72E88234CF440E050E094
:10207000BA0187E30E942A108230B0F5CF770E9420
:10208000D30F0E94D80F892B29F18C2F80640E94D6
:10209000CD0F8F2D0E94CD0F802F0E94CD0F812F4D
:1020A0000E94CD0F8D2F0E94CD0FCC23C9F0C830D8
:1020B00099F081E00E94CD0FCC3019F48FEF0E948F
:1020C000CD0FCAE08FEF0E94CD0F88236CF4C15072
:1020D000C9F70AC08FEF08C087E80E94CD0FF1CF83
:1020E00085E90E94CD0FEDCFDF91CF911F910F9128
:1020F000FF9008951F93CF93DF93EC01162F92E387
:1021000090932E018FEF0E94CD0F8F3F31F0909171
:102110002E019111F7CF80E02AC0812F0E94CD0FB0
:102120001D3F19F19E013E5F88818EBD0DB407FEF3
:10213000FDCF2296FE01319780818EBD0DB407FE42
:10214000FDCFC217D30781F78FEF0E94CD0F8FEF1E
:102150000E94CD0F8FEF0E94CD0F282F2F7181E0AD
:1021600090E0253021F080E002C081E090E0DF9136
:10217000CF911F910895CF92DF92EF92FF920F932C
:102180001F93CF93DF9300D000D0CDB7DEB781117E
:10219000ACC00E94C50F8091000181FF03C08091F7
:1021A0000001B0C085B18C6085B984B18C6284B9FE
:1021B00082E58CBD91E09DBD8CBD1AE08FEF0E9441
:1021C000CD0F1150D9F740E050E0BA0180E00E94F5
:1021D0002A10813009F091C084E680932F014AEAE9
:1021E00051E060E070E088E00E942A10813009F040
:1021F00043C0CE0101966C017E0195E0E90EF11C11
:1022000086018FEF0E94CD0FF80181938F01EE15AB
:10221000FF05B9F78B81813009F06FC08C818A3A54
:1022200009F06BC080912F01882349F040E050E015
:1022300060E070E489EA0E942A108111F3CF809156
:102240002F01882309F459C040E050E0BA018AE325
:102250000E942A10811151C0760114E01C0D8FEFED
:102260000E94CD0FF70181937F011E13F8CF898162
:1022700086FD3DC084E03CC040E050E0BA0189EA00
:102280000E942A10823018F001E011E002C002E042
:1022900019EA90912F01992341F040E050E0BA01F2
:1022A000812F0E942A108111F4CF80912F01882361
:1022B00021F140E052E060E070E080E10E942A10ED
:1022C00081111BC000932D010E94D30F002341F008
:1022D000809100018E7F8093000180E58CBD02C05B
:1022E0000E94C50F809100010DC081E00BC08CE001
:1022F00080932D010E94D30FEBCF10922D010E94ED
:10230000D30FEECF0F900F900F900F90DF91CF91E2
:102310001F910F91FF90EF90DF90CF900895811162
:1023200003C080910001089581E008950F93CF9339
:10233000DF93EB01811144C0002309F443C0809175
:10234000000180FD41C080912D0183FD09C0012E57
:1023500019E0220F331F441F551F1A95D1F7102D76
:10236000013081F4BA01A90181E10E942A10811192
:1023700020C060E072E0CE010E94F00F892BC9F00E
:1023800000E017C0BA01A90182E10E942A10811160
:1023900010C060E072E0CE010E94F00F892B19F0AE
:1023A000DE5F0150B1F740E050E0BA018CE00E94DE
:1023B0002A100E94D30F81E0011107C080E005C000
:1023C00084E003C084E001C083E0DF91CF910F91EE
:1023D0000895CF92DF92EF92FF920F93CF93DF9306
:1023E000EB0169017A01811151C0002309F450C049
:1023F0008091000180FD4EC08091000182FD4CC0A3
:1024000080912D0183FD09C00B2EB9E0CC0CDD1CA1
:10241000EE1CFF1CBA95D1F7B02D013079F4B7014D
:10242000A60188E10E942A10811129C06EEFCE0119
:102430000E947A10892B19F100E021C0867039F0D2
:10244000402F50E060E070E087E90E942A10B70159
:10245000A60189E10E942A10811111C06CEFCE0102
:102460000E947A10892B19F0DE5F0150B9F76DEFE9
:1024700080E090E00E947A10892B09F401E00E942C
:10248000D30F81E0011109C080E007C084E005C0DE
:1024900084E003C083E001C082E0DF91CF910F911F
:1024A000FF90EF90DF90CF900895EF92FF920F93FF
:1024B0001F93CF93DF93CDB7DEB760970FB6F89435
:1024C000DEBF0FBECDBF811199C17A01653081F4A5
:1024D000FA018081882319F0813029F091C10E948E
:1024E000C50F80E090C181E0FA01818380E08BC15B
:1024F0008091000180FD86C1062F10E00F3011058C
:1025000008F063C1F801EC5CFF4F0C94AD150E941C
:10251000D80F11E0892B09F46DC110E06BC140E0C8
:1025200050E0BA0189E00E942A10811150C160E197
:1025300070E0CE0101960E94F00F892B09F449C189
:1025400089818295869586958370813031F588855D
:102550008F7390E0A0E0B0E0DC0199278827019616
:10256000A11DB11D298530E0322F22274A85240F75
:10257000311D820F931FA11DB11D072E7AE0880F18
:10258000991FAA1FBB1F7A95D1F7702DF701808381
:102590009183A283B38310E02DC1298522952695CE
:1025A000269523708885F4E08F9FC0011124820F47
:1025B000911D9C012F5F3F4F8F81837090E0982F7A
:1025C0008827990F990F820F931FA0E0B0E03E81FA
:1025D0003F702B85221F2227221F320F2A8523704E
:1025E000220F230F275004C0880F991FAA1FBB1F5B
:1025F0002A95D2F7F70180839183A283B38310E0F9
:10260000F9C010912D0112FF2EC040E050E0BA0138
:102610008DE80E942A108111DEC08FEF0E94CD0F3D
:1026200060E170E0CE0101960E94F00F892B09F461
:10263000D4C010E38FEF0E94CD0F1150D9F72B8536
:1026400022952F7080E190E0A0E0B0E004C0880FF8
:10265000991FAA1FBB1F2A95D2F7F7018083918388
:10266000A283B383C7C040E050E0BA0189E00E9472
:102670002A108111B4C060E170E0CE0101960E9481
:10268000F00F892B09F4ADC011FF20C08C85881F85
:102690008827881F90E001962B852F73820F911D4C
:1026A000820F911D2E852295269526952370215007
:1026B00002C0880F991F2A95E2F7A0E0B0E0F70169
:1026C00080839183A283B38310E094C08C85282FEC
:1026D000237082958695877090E0F8E02F9F800D9B
:1026E000911D112401962B852C7730E03595279587
:1026F000359527952F5F3F4F829FA001839F500DF7
:10270000929F500D1124CA01A0E0B0E0F701808330
:102710009183A283B38310E06DC080912D01FA01F3
:10272000808310E067C040E050E0BA0189E00E9479
:102730002A10811158C060E170E0C7010E94F00FBB
:1027400011E0892B09F456C010E054C040E050E07D
:10275000BA018AE00E942A10811147C060E170E04E
:10276000C7010E94F00F11E0892B09F443C010E06B
:1027700041C040E050E0BA018AE30E942A10811172
:1027800036C08701F4E0EF0EF11C8FEF0E94CD0FF1
:10279000F80181938F01EE15FF05B9F710E02AC00B
:1027A00040E050E0BA018DE80E942A10811121C05A
:1027B0008FEF0E94CD0F60E470E0C7010E94F00F20
:1027C00011E0892BB9F010E015C014E013C011E03E
:1027D00011C011E00FC011E00DC011E00BC011E0FD
:1027E00009C011E007C011E005C011E003C011E00D
:1027F00001C011E00E94D30F812F05C084E003C007
:1028000084E001C083E060960FB6F894DEBF0FBE8F
:10281000CDBFDF91CF911F910F91FF90EF90089561
:1028200080912F01882319F0815080932F0180918E
:102830002E01882319F0815080932E018091000190
:102840001D9B02C0846001C08B7F1C9902C08D7FDC
:1028500001C083608093000108951092C50080E15B
:102860008093C400E2ECF0E0808186608083E0E346
:10287000F1E0158214821382128211821082E6E73F
:10288000F1E0158214821382128211821082E1EC2F
:10289000F0E08081886980830895E6E7F1E0248193
:1028A000358120343105D8F7E6E7F1E02081318128
:1028B0003327D901AA58BE4F16968C93F894848179
:1028C000958101969583848388EB8093C1007894E9
:1028D0002F5F3F4F2F7333273183208308951F923B
:1028E0000F920FB60F9211242F938F939F93AF9354
:1028F000BF93EF93FF932091C60080913401909194
:102900003501803498F48F5F90E0E0E3F1E0958347
:102910008483808191819927DC01A05DBE4F16964A
:102920002C9301968F73992791838083FF91EF9168
:10293000BF91AF919F918F912F910F900FBE0F90EC
:102940001F9018951F920F920FB60F9211242F937C
:102950003F938F939F93AF93BF93EF93FF93809198
:102960007A0190917B018823C9F02FEF280F822FE5
:1029700090E0E6E7F1E09583848382819381992753
:10298000DC01AA58BE4F16963C913093C6000196C2
:102990008F73992793838283211103C088E98093E1
:1029A000C100FF91EF91BF91AF919F918F913F91A6
:1029B0002F910F900FBE0F901F901895CF93C82F97
:1029C0008A3019F48DE00E94DE14E0ECF0E0908192
:1029D00095FFFDCFC093C60080E090E0CF910895B1
:1029E00085B5856085BD16BC08951F920F920FB600
:1029F0000F9211242F933F934F935F936F937F9385
:102A00008F939F93AF93BF93EF93FF930E94101404
:102A1000FF91EF91BF91AF919F918F917F916F91B6
:102A20005F914F913F912F910F900FBE0F901F908C
:102A30001895CF93DF93EC018881882331F021969C
:102A40000E944D1489918111FBCFDF91CF910895A0
:102A50008BE987BD82E080936E0082E884BD789424
:102A60000E94F0140E942D1461E071E081E40E9444
:102A7000DE1480E00E94BB10813031F461E071E02F
:102A800086E40E94DE14FFCF61E071E082E40E94E0
:102A9000DE146CEB71E080E00E94800B811135C088
:102AA00041E06EE171E082E494E00E94960B8111B6
:102AB00027C042E454E060E570E082EF93E00E94BA
:102AC000710F61E071E083E40E94DE1482EF93E015
:102AD0000E9419158DE00E944D14E2E4F4E0468155
:102AE00057816085718582859385A485B585481752
:102AF00059076A077B07E9F6CF010E94650F05C0F9
:102B000061E071E087E40E94DE14FFCF60E070E6D0
:102B100087E792E40895A1E21A2EAA1BBB1BFD01D0
:102B20000DC0AA1FBB1FEE1FFF1FA217B307E407AC
:102B3000F50720F0A21BB30BE40BF50B661F771F04
:102B4000881F991F1A9469F76095709580959095E4
:102B50009B01AC01BD01CF010895EE0FFF1F059051
:102B6000F491E02D09940E94BE15A59F900DB49F8D
:102B7000900DA49F800D911D11240895A29FB00176
:102B8000B39FC001A39F700D811D1124911DB29FA1
:0E2B9000700D811D1124911D0895F894FFCF42
:102B9E00010000000200000000DE14000000002210
:102BAE002A2B2C3A3B3C3D3E3F5B5D7C7F00706F99
:082BBE00656D2E7478740000AF
:00000001FF
