S00F0000414443526561642E73726563D1
S11300000C9434000C9451000C9451000C94510045
S11300100C9451000C9451000C9451000C94510018
S11300200C9451000C9451000C9451000C94510008
S11300300C9451000C9451000C9451000C945100F8
S11300400C9451000C9451000C9451000C945100E8
S11300500C9451000C948B000C9451000C9451009E
S11300600C9451000C94510011241FBECFEFD8E022
S1130070DEBFCDBF11E0A0E0B1E0ECE9F7E002C0E3
S113008005900D92A231B107D9F725E0A2E1B1E0C4
S113009001C01D92AA31B207E1F70E94BE000C9480
S11300A0CC030C940000CF93C82F8A3019F48DE050
S11300B00E945300E0ECF0E0908195FFFDCFC093E7
S11300C0C60080E090E0CF9108951092C50080E1D1
S11300D08093C400E2ECF0E0808186608083E1ECF0
S11300E0F0E08081886180830895ECE7F0E080810E
S11300F080648083EAE7F0E0808187688083808180
S113010088608083808180648083089581E084B9DD
S11301108FEF85B908951F920F920FB60F92112495
S11301202F933F938F939F93EF93FF9380911201AB
S1130130909113012091780030917900FC01EE0F29
S1130140FF1FEC5EFE4F318320830196811522E070
S1130150920729F0909313018093120104C0109226
S1130160130110921201FF91EF919F918F913F9192
S11301702F910F900FBE0F901F9018950E9486002C
S11301800E9475000E9465001092130110921201E2
S11301902898789480E091E0909317058093160551
S11301A080E090E00F2EFAE7EF2EF12CF02D0EE018
S11301B011E0C12CD12CEC011CC0FE01EE0FFF1F7D
S11301C0EC5EFE4F90812181F70180818064808301
S11301D02F939F931F930F930E94010121960F90D9
S11301E00F900F900F90C115F2E0DF0711F4CC2DA2
S11301F0DD2D8091120190911301C817D907E9F6FA
S1130200DACFA0E0B0E0E7E0F1E00C94A503AE01A2
S11302104B5F5F4FFA0161917191AF0180911605B7
S1130220909117050E941701E2E00C94C103ACE021
S1130230B0E0EDE1F1E00C9495037C016B018A01DF
S1130240FC0117821682838181FFBDC1CE01019614
S11302504C01F7019381F60193FD859193FF819100
S11302606F01882309F4ABC1853239F493FD85917C
S113027093FF81916F01853229F4B70190E00E94C8
S1130280FF02E7CF512C312C20E02032A0F48B3236
S113029069F030F4803259F0833269F420612CC063
S11302A08D3239F0803339F4216026C02260246015
S11302B023C0286021C027FD27C030ED380F3A3015
S11302C078F426FF06C0FAE05F9E300D1124532E09
S11302D013C08AE0389E300D1124332E20620CC0E6
S11302E08E3221F426FD6BC1206406C08C3611F4D5
S11302F0206802C0883641F4F60193FD859193FF8E
S113030081916F018111C1CF982F9F7D95549330B6
S113031028F40C5F1F4FFFE3F9830DC0833631F0DF
S1130320833771F0833509F05BC022C0F801808106
S113033089830E5F1F4F44244394512C540115C0EC
S11303403801F2E06F0E711CF801A080B18026FF25
S113035003C0652D70E002C06FEF7FEFC5012C87ED
S11303600E94F4022C0183012C852F77222E17C0C2
S11303703801F2E06F0E711CF801A080B18026FFF5
S113038003C0652D70E002C06FEF7FEFC5012C87BD
S11303900E94E9022C012C852068222E830123FC73
S11303A01BC0832D90E048165906B0F4B70180E2D3
S11303B090E00E94FF023A94F4CFF50127FC859166
S11303C027FE81915F01B70190E00E94FF02311086
S11303D03A94F1E04F1A51084114510471F7E5C001
S11303E0843611F0893639F5F80127FF07C060819A
S11303F07181828193810C5F1F4F08C0608171817C
S1130400072E000C880B990B0E5F1F4F2F76722E50
S113041097FF09C090958095709561957F4F8F4F98
S11304209F4F2068722E2AE030E0A4010E94370317
S1130430A82EA81844C0853729F42F7EB22E2AE0AE
S113044030E025C0F22FF97FBF2E8F36C1F018F4AB
S1130450883579F0B4C0803719F0883721F0AFC0FF
S11304602F2F2061B22EB4FE0DC08B2D8460B82EC8
S113047009C024FF0AC09F2F9660B92E06C028E049
S113048030E005C020E130E002C020E132E0F801B4
S1130490B7FE07C060817181828193810C5F1F4F19
S11304A006C06081718180E090E00E5F1F4FA4015F
S11304B00E943703A82EA818FB2DFF777F2E76FE07
S11304C00BC0372D3E7FA51450F474FE0AC072FC95
S11304D008C0372D3E7E05C0BA2C372D03C0BA2C78
S11304E001C0B52C34FF0DC0FE01EA0DF11D808161
S11304F0803311F4397E09C032FF06C0B394B3943B
S113050004C0832F867809F0B39433FD13C030FF01
S113051006C05A2CB31418F4530C5B18B32CB31440
S113052068F4B70180E290E03C870E94FF02B39434
S11305303C85F5CFB31410F43B1801C0312C34FFC3
S113054012C0B70180E390E03C870E94FF023C8523
S113055032FF17C031FD03C088E790E002C088E590
S113056090E0B7010CC0832F867859F031FF02C0A8
S11305708BE201C080E237FD8DE2B70190E00E947A
S1130580FF02A51438F4B70180E390E00E94FF0253
S11305905A94F7CFAA94F401EA0DF11D8081B701B2
S11305A090E00E94FF02A110F5CF332009F451CE50
S11305B0B70180E290E00E94FF023A94F6CFF7017F
S11305C08681978102C08FEF9FEF2C96E2E10C9415
S11305D0B103FC010590615070400110D8F780957B
S11305E090958E0F9F1F0895FC01615070400190FB
S11305F00110D8F7809590958E0F9F1F08950F9343
S11306001F93CF93DF93FB01238121FD03C08FEF61
S11306109FEF28C022FF16C046815781248135816F
S11306204217530744F4A081B1819D012F5F3F4FCE
S1130630318320838C93268137812F5F3F4F37830B
S1130640268310C0EB01092F182F0084F185E02DBB
S11306500995892BE1F68E819F8101969F838E8374
S1130660812F902FDF91CF911F910F910895FA015F
S1130670AA27283051F1203181F1E8946F936E7FDD
S11306806E5F7F4F8F4F9F4FAF4FB1E03ED0B4E0CE
S11306903CD0670F781F891F9A1FA11D680F791F0F
S11306A08A1F911DA11D6A0F711D811D911DA11D20
S11306B020D009F468943F912AE0269F1124301930
S11306C0305D3193DEF6CF010895462F4770405DCB
S11306D04193B3E00FD0C9F7F6CF462F4F70405D7A
S11306E04A3318F0495D31FD4052419302D0A9F7D5
S11306F0EACFB4E0A6959795879577956795BA95CF
S1130700C9F700976105710508959B01AC010A2E94
S113071006945795479537952795BA95C9F7620F6B
S1130720731F841F951FA01D08952F923F924F920F
S11307305F926F927F928F929F92AF92BF92CF926D
S1130740DF92EF92FF920F931F93CF93DF93CDB776
S1130750DEB7CA1BDB0B0FB6F894DEBF0FBECDBFEE
S113076009942A88398848885F846E847D848C84BF
S11307709B84AA84B984C884DF80EE80FD800C81C8
S11307801B81AA81B981CE0FD11D0FB6F894DEBFAB
S10F07900FBECDBFED010895F894FFCF1B
S113079C000000020000000053000000000025755A
S10507AC0A003D
S9030000FC
