:100000000C945A000C9477000C9477000C947700B1
:100010000C9477000C9477000C9477000C94F717ED
:100020000C9477000C9477000C9477000C94770074
:100030000C9477000C9477000C9477000C94770064
:100040000C9477000C9477000C94F5160C942817F8
:100050000C9477000C9487170C9477000C9477001D
:100060000C9477000C94770040122B113F1139113A
:100070003911391139113911391139113911391130
:1000800039114F12391139113911D81039113F1165
:100090003911391116122F1537158D16A9158D1610
:1000A0008D168D168D168D168D1635163B164E1621
:1000B0006116781611241FBECFEFD8E0DEBFCDBF8A
:1000C00011E0A0E0B1E0E4EAF1E302C005900D9296
:1000D000AE32B107D9F728E0AEE2B1E001C01D921F
:1000E000A132B207E1F70E941B180C94D0180C94AF
:1000F0000000CF93DF9342305105C0F0DB01FC01DB
:100100009A01CD91DD91C193D193225031092230D2
:100110003105B8F79A01225031092E7F2E5F3F4FEB
:10012000820F931F620F731F4170552741155105B0
:1001300049F0DB01FC01480F591F9D919193E41791
:10014000F507D9F7DF91CF9108950F931F93DC0145
:10015000FB01628D738D80E090E02C91233059F487
:100160000489158920E030E0980111270027602BD1
:10017000712B822B932B1F910F9108950F93CF9387
:10018000DF93EC019A01AB01BC016A5C7F4F01E097
:1001900089810E943E14811123C0FE01EC5CFD4F59
:1001A0008081918185359A4AE9F4E85CF14080814B
:1001B0009181A281B381BB2786349144A445B105C6
:1001C00099F0C857DF4F488159816A817B81772731
:1001D00081E0463451446445710539F480E005C03E
:1001E00083E003C082E001C080E0DF91CF910F91F6
:1001F00008958F929F92AF92BF92CF92DF92EF922B
:10020000FF920F93CF93DF93FC012481222309F403
:1002100047C0EC01C2A8D3A8E4A8F5A84C01F6E3B6
:100220008F0E911C01E0A7019601B40189810E9403
:100230009114811137C01C828EA19FA1A8A5B9A5D8
:10024000C816D906EA06FB0678F14E8D5F8D68A1C7
:1002500079A1840F951FA61FB71FC816D906EA06F5
:10026000FB0620F5AB80B12C82E0A816B10400F1AA
:100270008E8D9F8DA8A1B9A1C80ED91EEA1EFB1EA6
:1002800001E0A7019601B40189810E949114E1E087
:10029000AE1AB108F1E0AF16B10451F780E009C021
:1002A00080E007C081E005C080E003C080E001C0BD
:1002B00080E0DF91CF910F91FF90EF90DF90CF9092
:1002C000BF90AF909F908F900895CF92DF92EF9262
:1002D000FF920F931F93CF93DF93FC01C2A8D3A883
:1002E000E4A8F5A8C416D506E606F706C1F06A012B
:1002F0007B01EC010E94F900182F811112C001E06E
:10030000A7019601BE016A5C7F4F89810E943E145D
:10031000811109C0CAAADBAAECAAFDAA05C010E097
:1003200003C011E001C011E0812FDF91CF911F9137
:100330000F91FF90EF90DF90CF9008950097C9F054
:10034000DC01ED91FC9111973097A9F020812223D7
:10035000A1F02681378112968D919C9113972817D1
:10036000390769F481810E94371480FD0AC080E05A
:10037000089589E0089589E0089589E0089589E065
:10038000089583E008952F923F924F925F926F926B
:100390007F928F929F92AF92BF92CF92DF92EF9215
:1003A000FF920F931F93CF93DF93CDB7DEB72E97B6
:1003B0000FB6F894DEBF0FBECDBFDC01ED91FC910E
:1003C0001197208130E0205331092A30310538F46B
:1003D00051815A3321F43296ED93FC9303C020915E
:1003E0002E0130E0FB0111821082232B09F00AC29A
:1003F00020913101309132013E872D872115310541
:1004000009F402C2142F31832083D9018C918823EF
:1004100069F011968C910E94371480FD07C011235A
:1004200009F4F4C182FFF4C18AE08EC2ED85FE8535
:100430001082118280E00E94631380FDEBC11123C2
:1004400011F082FDE9C140E050E0BA018D859E8542
:100450000E94BE008130B9F4ED85FE85E850FE4F64
:100460008081882309F4DAC1ED85FE85E450FE4FD2
:10047000C080D180E280F380B701A6018D859E8582
:100480000E94BE0003C0C12CD12C7601833009F438
:10049000C7C18111C7C1ED85FE85EF5BFF4F80812C
:1004A00091818115924009F0BFC1ED85FE85E45B25
:1004B000FF4F40805180612C712C41145104610424
:1004C000710441F4ED85FE85E65AFF4F408051806E
:1004D00062807380AD85BE855E964D925D926D9211
:1004E0007C929197FD01EA5BFF4FA081ED85FE852F
:1004F000A3838FEF8A0F823008F098C1ED5BFF4F26
:100500001081ED85FE851283112309F491C1812F9D
:1005100090E09C012150310982239323892B09F01B
:1005200089C1E95BFF4F20803180ED85FE853186F2
:100530002086C1018F709927892B09F07DC1E75B67
:10054000FF4F80809180A12CB12C81149104A104D3
:10055000B10441F4ED85FE85EA5AFF4F8080918019
:10056000A280B380ED85FE85EC5BFF4F2081318159
:100570003A832983232B09F461C1B0E0A3019201DE
:100580000E94B61869877A878B879C87A981BA8170
:10059000CD01A0E0B0E08D839E83AF83B887C10119
:1005A000929582958F7089279F7089274D815E81F2
:1005B0006F817885480F591F611D711D89859A8546
:1005C000AB85BC85840F951FA61FB71F89839A83AF
:1005D000AB83BC8388169906AA06BB0608F430C113
:1005E000C501B40129813A814B815C81621B730B87
:1005F000840B950B212F30E040E050E00E948E18D4
:10060000DA01C901211531054105510509F41AC165
:10061000263F6FE036074105510510F012E001C09A
:1006200011E0863F9F4FA105B10508F015C14901B2
:100630005A01F2E08F0E911CA11CB11CAD85BE8544
:100640005A968D929D92AD92BC925D97FD01C2A289
:10065000D3A2E4A2F5A28D819E81AF81B8858C0DD5
:100660009D1DAE1DBF1D86A397A3A0A7B1A749815D
:100670005A816B817C814C0D5D1D6E1D7F1D46A7CF
:1006800057A760AB71AB133079F5232809F0DCC0B4
:10069000ED85FE85EE59FF4F80819181A281B38166
:1006A000ED85FE8582A793A7A4A7B5A7880C991C02
:1006B000AA1CBB1C880C991CAA1CBB1CFFEF8F0E2C
:1006C000F1E09F1EA11CB11C072E79E0B694A794FF
:1006D000979487947A95D1F7702D481459046A0439
:1006E0007B0408F4B3C006C1232809F4B1C02985EE
:1006F0003A854B855C85820F931FA41FB51FED853E
:10070000FE8582A793A7A4A7B5A7123029F4880C69
:10071000991CAA1CBB1CD8C0A3E0B0E0A5019401A1
:100720000E94B618DC01CB01B695A79597958795E1
:10073000F1E08F229924AA24BB24880E991EAA1EB8
:10074000BB1EC2C0ED85FE85EC5CFD4F80819181B2
:1007500085359A4AA1F5ED85FE8586A997A9A0ADB4
:10076000B1AD82359245A146B14459F5ED85FE857E
:10077000E65EFD4F80819181A281B38182379247ED
:10078000A144B14601F5ED85FE85EE5DFD4F80810A
:100790009181A281B381ED85FE8582879387A487AD
:1007A000B587E25EFD4F80819181A281B381ED85A5
:1007B000FE8586879787A08BB18B13E005C013E079
:1007C00003C013E001C013E0AD85BE851C9380918A
:1007D0002F019091300101969093300180932F0169
:1007E00017969C938E931697FD0112AA13AA14AA2A
:1007F00015AA148256961D921D921D921C9259970D
:1008000080E0A2C08BE0A0C08CE09EC080E09CC0D5
:1008100080E09AC083E098C08AE096C08DE094C0E2
:1008200081E092C08DE090C08DE08EC08DE08CC0E4
:100830008DE08AC08DE088C08DE086C08DE084C0E8
:100840008DE082C08DE080C08DE07EC08DE07CC0F8
:100850008DE07AC08DE078C049015A01B2E08B0E7C
:10086000911CA11CB11CED85FE85828E938EA48EF9
:10087000B58EC2A2D3A2E4A2F5A28D819E81AF81E2
:10088000B8858C0D9D1DAE1DBF1D86A397A3A0A787
:10089000B1A749815A816B817C814C0D5D1D6E1D14
:1008A0007F1D46A757A760AB71ABEFCE8FEF9FEFD1
:1008B000DC01ED85FE8586879787A08BB18B12863C
:1008C00013861486158680CFBFEF8B0EB1E09B1E7A
:1008D000A11CB11C072E79E0B694A7949794879435
:1008E0007A95D1F7702D481459046A047B0408F4F2
:1008F000B1CFDCCF8FEF9FEFDC01ED85FE858687E2
:100900009787A08BB18BDF0112861386148615861C
:100910001582EA59FF4F80819181A7019601280F26
:10092000391F411D511DFD01228B338B448B558B8B
:1009300001E0BD016A5C7F4F81810E943E148823E3
:1009400009F400CF13E040CF2E960FB6F894DEBF27
:100950000FBECDBFDF91CF911F910F91FF90EF9010
:10096000DF90CF90BF90AF909F908F907F906F90CF
:100970005F904F903F902F900895CF92DF92EF922B
:10098000FF92FC019A01AB01225031094109510942
:10099000C28CD38CE48CF58C82E0C81AD108E108B3
:1009A000F1082C153D054E055F0568F4A281B0E005
:1009B0000E94B618C6A4D7A4E0A8F1A86C0D7D1DAE
:1009C0008E1D9F1D03C060E070E0CB01FF90EF9093
:1009D000DF90CF900895AF92BF92CF92DF92EF92C7
:1009E000FF921F93CF93DF93EC016A017B014230AA
:1009F00051056105710508F4AAC08A8D9B8DAC8DE7
:100A0000BD8D481759076A077B0708F0A5C0888184
:100A1000823009F44CC0833009F46BC0813009F096
:100A2000A0C05A01B694A794A40EB51EC501892F83
:100A3000992786954EA15FA168A579A5480F591FF2
:100A4000611D711DCE010E94650181118EC0F501ED
:100A5000F170EC0FFD1F16A98FEFA81AB80AC50197
:100A6000892F992786954EA15FA168A579A5480F82
:100A7000591F611D711DCE010E946501811179C050
:100A800081E0B822CA0DDB1D8EA9612F70E0782BA2
:100A9000C0FE09C0729562956F7067277F706727E7
:100AA00080E090E071C07F7080E090E06DC0452FE5
:100AB000562F672F77278EA19FA1A8A5B9A5480F0C
:100AC000591F6A1F7B1FCE010E946501811155C00D
:100AD000CC0CDD1CEE1CFF1CE894C0F881E0D82291
:100AE000EE24FF24CC0DDD1D6EA97FA980E090E0EF
:100AF0004BC08EA19FA1A8A5B9A5689416F87695BC
:100B00006795579547951694D1F7480F591F6A1F57
:100B10007B1FCE010E946501811133C0CC0CDD1C0E
:100B2000EE1CFF1CCC0CDD1CEE1CFF1C8CEFC82245
:100B300081E0D822EE24FF24FE01EC0DFD1D86A9E4
:100B400097A9A0ADB1ADBC01CD019F701DC061E002
:100B500070E080E090E018C061E070E080E090E03C
:100B600013C06FEF7FEFCB010FC06FEF7FEFCB01B3
:100B70000BC06FEF7FEFCB0107C06FEF7FEFCB01B3
:100B800003C06FEF7FEFCB01DF91CF911F91FF90FB
:100B9000EF90DF90CF90BF90AF900895EF92FF92CB
:100BA0000F931F93CF93DF93EC018B017D836C83B5
:100BB0004E815F81688579854130510561057105F8
:100BC00009F493C0E881F981828D938DA48DB58D50
:100BD000481759076A077B0708F089C04115510576
:100BE0006105710551F58081833049F442A553A513
:100BF00064A575A54115510561057105F1F41A86C5
:100C00001B861C861D86808591850817190708F0AC
:100C100070C082A593A5A4A5B5A59801329522958B
:100C20002F7023273F702327820F931FA11DB11D13
:100C30008E879F87A88BB98B44C0E28080E1E89EB5
:100C4000700111240E151F0518F1888199810E94E9
:100C5000EB04AB01BC014F3F8FEF580768077807E3
:100C600009F449C0423051056105710508F445C0D9
:100C7000E881F981828D938DA48DB58D4817590730
:100C80006A077B07E0F50E191F090E151F05E8F628
:100C90004A875B876C877D87888199810E94BD0424
:100CA0009801329522952F7023273F702327DC016E
:100CB000CB01820F931FA11DB11D8E879F87A88B2B
:100CC000B98B0F701127000F111F02951295107F1D
:100CD0001027007F10270A5C1F4F88819981080F19
:100CE000191F1B8B0A8B80E00BC082E009C082E0D9
:100CF00007C082E005C081E003C082E001C082E05D
:100D0000DF91CF911F910F91FF90EF9008954F9237
:100D10005F926F927F92AF92BF92CF92DF92EF92EB
:100D2000FF920F931F93CF93DF93EC016A017B0136
:100D300028013901423051056105710508F4D9C017
:100D40008A8D9B8DAC8DBD8D481759076A077B072F
:100D500008F0D1C08881823009F463C0833009F47F
:100D600085C0813009F0BDC05A01B694A794A40E85
:100D7000B51EC501892F992786954EA15FA168A54B
:100D800079A5480F591F611D711DCE010E94650193
:100D9000182F8111ABC0C5019170C0FE23C0FE01A8
:100DA000E80FF91F86A9282F2F7030E1439EC0015C
:100DB0001124822B86AB8FEFA81AB80A81E08C83AE
:100DC000C501892F992786954EA15FA168A579A5B0
:100DD000480F591F611D711DCE010E9465018111CF
:100DE00082C08BC0FE01E80FF91F46AA3FEFA31A8D
:100DF000B30A81E08C83C501892F992786954EA17E
:100E00005FA168A579A5480F591F611D711DCE010D
:100E10000E946501811169C07BC0EC0FFD1F46AACD
:100E200065C0452F562F672F77278EA19FA1A8A5B4
:100E3000B9A5480F591F6A1F7B1FCE010E9465018B
:100E4000182F811153C0CC0CDD1CEE1CFF1CE89444
:100E5000C0F881E0D822EE24FF2436E3C30ED11C73
:100E6000FE01EC0DFD1D5182408240C08EA19FA16C
:100E7000A8A5B9A5689416F87695679557954795EE
:100E80001694D1F7480F591F6A1F7B1FCE010E948D
:100E90006501182F81112AC0CC0CDD1CEE1CFF1C33
:100EA000CC0CDD1CEE1CFF1C8CEFC82281E0D8228C
:100EB000EE24FF2436E3C30ED11CFE01EC0DFD1D14
:100EC00080819181A281B38188279927AA27B07F49
:100ED000482A592A6A2A7B2A408251826282738276
:100EE00005C012E003C0182F01C0182F81E08C83C9
:100EF0001CC012E01AC012E018C0F501F17068942D
:100F000013F876946794579447941694D1F785CF45
:100F1000F501F170DE01AE0FBF1FD6969C91907F58
:100F2000852D8F70492E482A78CF812FDF91CF9160
:100F30001F910F91FF90EF90DF90CF90BF90AF90F7
:100F40007F906F905F904F9008952F923F924F92B5
:100F50005F926F927F928F929F92AF92BF92CF9249
:100F6000DF92EF92FF920F931F93CF93DF93EC01E9
:100F70002A013B014115510561057105B9F48A84C7
:100F80009B84AC84BD8481149104A104B10429F133
:100F90008A8D9B8DAC8DBD8D88169906AA06BB06E1
:100FA00000F1812C912C540183941BC00E94EB040E
:100FB0006B017C01623071058105910508F491C0D7
:100FC0008A8D9B8DAC8DBD8DC816D906EA06FB06B1
:100FD00008F48CC05301420104C0812C912C5401AF
:100FE0008394750164016894222421F8312C00E077
:100FF00010E08FEFC81AD80AE80AF80A8A8D9B8D8C
:10100000AC8DBD8DC816D906EA06FB0658F022E065
:1010100082169104A104B10408F46DC0C22CD32C33
:10102000E02EF12EB701A601CE010E94EB0461155E
:1010300071058105910599F06F3F2FEF72078207C7
:10104000920709F45DC0613071058105910509F4CD
:101050005CC0C814D904EA04FB0459F65BC08C2CAC
:101060009D2CAE2CBF2C0FEF1FEF2FEF3FE0B701F1
:10107000A601CE010E94870681112CC041145104A3
:101080006104710459F00C2D1D2D2E2D3F2DB3013F
:10109000A201CE010E94870681111CC08A869B8610
:1010A000AC86BD868E859F85A889B9898F3F2FEF35
:1010B0009207A207B20799F10197A109B1098E879A
:1010C0009F87A88BB98B81E08D836C2D7D2D8E2D14
:1010D0009F2D2EC0813041F161E070E080E090E012
:1010E00027C061E070E080E090E022C06C2D7D2D93
:1010F0008E2D9F2D1DC060E070E080E090E018C054
:101100006FEF7FEF8FEF9FEF13C061E070E080E043
:1011100090E00EC060E070E080E090E009C06C2DCF
:101120007D2D8E2D9F2D04C06FEF7FEF8FEF9FEFF2
:10113000DF91CF911F910F91FF90EF90DF90CF90B3
:10114000BF90AF909F908F907F906F905F904F90E7
:101150003F902F9008958F929F92AF92BF92CF921F
:10116000DF92EF92FF920F931F93CF93DF93DC01F7
:101170001496CD91DC911597219609F402C11E9623
:101180008D909D90AD90BC90519781149104A104D5
:10119000B10409F4F8C07B018C016E01BFE0CB22E1
:1011A000DD24C114D10409F0D0C0EFEF8E1A9E0ADD
:1011B000AE0ABE0ADC011E968D929D92AD92BC9243
:1011C00051971A964D915D916D917C911D974115A6
:1011D00051056105710549F4ED91FC91808591857A
:1011E000C817D90708F0D1C0B0C0DC01ED91FC915F
:1011F000228130E021503109CE01929582958F7085
:1012000089279F70892728233923232B09F09DC024
:10121000CF010E94EB044B015C0162307105810536
:10122000910508F4B4C06F3F7F4F8F4F9F4F09F473
:10123000B0C0D801ED91FC91828D938DA48DB58DB8
:1012400088169906AA06BB0608F46DC0EF2809F4B3
:10125000A2C0D8011A964D915D916D917C911D9718
:10126000CF010E94A5074B015C0161157105810545
:10127000910509F492C0613071058105910509F469
:101280008EC06F3F7F4F8F4F9F4F09F48AC0D801A8
:101290008D919C910E94F900811185C0F801808197
:1012A0009181FC01F6968A5C9D4F1192E817F9072F
:1012B000E1F7D801ED90FC90B501A401C7010E94AF
:1012C000BD04F70162AB73AB84AB95ABF12CEE249C
:1012D000E39417C0E482D8018D919C910E94F9009B
:1012E000811163C0D801ED91FC9182A993A9A4A9B1
:1012F000B5A90196A11DB11D82AB93ABA4ABB5AB53
:10130000F394D801ED91FC918281F81618F382A92B
:1013100093A9A4A9B5A98F199109A109B10982AB13
:1013200093ABA4ABB5ABF80182869386A486B58651
:10133000B501A401808191810E94BD04D8011E964F
:101340006D937D938D939C935197F801D583C483BE
:10135000CC0CDD1CCC0CDD1CCC0CDD1CCC0CDD1C49
:10136000CC0CDD1CF6E3CF0ED11CD8018D919C91E5
:101370001197C80ED91E5396DC92CE92529780E0F8
:1013800015C084E013C084E011C084E00FC082E087
:101390000DC081E00BC084E009C087E007C082E097
:1013A00005C081E003C081E001C081E0DF91CF9101
:1013B0001F910F91FF90EF90DF90CF90BF90AF9073
:1013C0009F908F9008952F923F924F925F926F92CD
:1013D0007F928F929F92AF92BF92CF92DF92EF92C5
:1013E000FF920F931F93CF93DF9300D000D0CDB720
:1013F000DEB78C016B01DB018C918F3211F08C35E3
:1014000049F4BFEFCB1ADB0AF80116821782108667
:1014100011860CC0D801ED91FC9186899789A08D29
:10142000B18DF80186839783A087B187D6018C910F
:10143000803248F460E070E0C8010E94CE05F801F7
:10144000138A128A5DC16894BB24B5F80F2EFEE2A0
:101450008F2EF02D212CA12C912C6894772473F8D9
:10146000412C312C79824A821C830B83572CD60164
:101470002B813C81FD018D918F32E1F38C35D1F3CD
:101480003C832B83D90154966D917C915597DB0158
:10149000CB010B96BD92A817B907E1F73C832B83CC
:1014A00080818E3251F06F01EA2CF92C2A2D392DD2
:1014B000652C742C032DDF011DC0DB018C92818112
:1014C0008E3249F411968C9282818E3209F46FC06B
:1014D00023E0322D02C022E030E08F3209F4CFC089
:1014E0008C3509F4CCC0813208F0E2C0C3C0FB01E6
:1014F0008387E0C02F5F3F4F1D91113208F4D0C0A9
:101500001F3209F4D1C01C3509F4CEC01E3209F4D3
:10151000BBC0E614F70408F0CBC00AC0000F000FF0
:10152000E980FA800F2EFBE06F2EF02D712CE2CFB8
:1015300011230CF4BDC0412F50E042325105B9F1E6
:10154000E0E1F1E08191882309F4A4C090E048171C
:101550005907C1F72CC0026006C08FE9810F8A319C
:1015600010F401601052FB01EE0DFF1D1083F70116
:1015700031967F01BFCFEF2809F49AC0DB019C911F
:10158000953E11F495E09C93B8E06B16710411F44C
:10159000000F000F902F9370913009F48061902F0D
:1015A0009C70943009F48860FB01838783C086E0D7
:1015B000A7C00B811C81D8011E964D915D916D9144
:1015C0007C9151978D919C910E946501811184C0FD
:1015D000F80162897389DB019C91992309F489C020
:1015E0001B969C9193FD12C044895589FB01DA0139
:1015F0009B01255F3F4F780104C0E217F30709F410
:1016000063C011919D911917C1F387016A2D792D3E
:10161000C8010E94AB08882371F21C830B835EC053
:1016200095FF0CC0EB81FC81168217821086118613
:10163000138A128A92FF1BCF80E062C092FD16C00F
:1016400085E05EC0DB011B968C9184FF11C0EB81AD
:10165000FC81808191810E94A500AB81BC8116969E
:101660006D937D938D939C93199701CF84E048C02F
:1016700085E046C06F01C20ED31E84E238CF6F01F1
:10168000C20ED31E8B2D33CFE8E06E16710409F421
:1016900045CF8DCF8FEB810F8A3108F45CCF5DCFC2
:1016A000C20ED31E84E067CFC20ED31E832D63CF3C
:1016B00086E026C06A2D792D8B819C810E94CE0503
:1016C000882309F476CF0AC0FC82EB82DA011B96EC
:1016D0009C9192FFB7CF14C01C830B83AB81BC815C
:1016E0005496ED91FC9155979385843009F498CFE9
:1016F00007C01C830B830488F589E02D938590CF68
:101700000F900F900F900F90DF91CF911F910F913D
:10171000FF90EF90DF90CF90BF90AF909F908F9011
:101720007F906F905F904F903F902F900895811120
:1017300012C0E0913101F0913201309709F010822E
:101740006115710511F0FB011082709332016093F5
:10175000310180E008958BE008952F923F924F92DF
:101760005F926F927F928F929F92AF92BF92CF9231
:10177000DF92EF92FF920F931F93CF93DF93CDB73A
:10178000DEB7AE970FB6F894DEBF0FBECDBF7CA319
:101790006BA3009709F463C1142F7C01DC011D9237
:1017A0001C924E71BE016F5F7F4FCE0183960E94E7
:1017B000C30181119FC1B12FBF713B2ECE0147964E
:1017C0009E8B8D8B6BA17CA146970E94E309CB88F1
:1017D000DC88811150C1C114D10409F047C141C155
:1017E000843009F07BC160E070E0CE0101960E9478
:1017F000CE05811145C14F85588969897A898981CA
:101800009A810E94650181113BC1EB89FC8980812D
:10181000853E09F43EC1882309F43BC161E070E0D4
:10182000CE0101960E94AB08882329F329C1EB89D8
:10183000FC89CF0180961192E817F907E1F76D89CD
:101840007E894BE050E08B899C890E947900E98178
:10185000FA8181E08483E32DE8603E2ECB88DC882A
:1018600008C0D6011B968C91817109F01DC112FD33
:101870001DC133FEB7C00E948918F60166877787BD
:10188000808B918B1386148E158E168E178EE981A0
:10189000FA81FEA3EDA3B601CF010E94A5004B0182
:1018A0005C01D6015B961C921E925A9755961C922B
:1018B0001E92549781E0EDA1FEA1848381149104CE
:1018C000A104B10409F48EC022A933A944A955A9E1
:1018D0002BA73CA74DA75EA7B2E08B169104A104ED
:1018E000B10408F4E8C0828D938DA48DB58D88165F
:1018F0009906AA06BB0608F0E0C08FA298A6A9A682
:10190000BAA62224239443C04FA158A569A57AA55D
:101910008DA19EA10E94EB042B013C016115710574
:101920008105910509F443C0613071058105910578
:1019300009F4C5C06F3F7F4F8F4F9F4F09F4C1C05F
:1019400000E010E098014FA158A569A57AA58DA1E6
:101950009EA10E9487068111B5C0EDA1FEA18685DA
:101960009785A089B1898F3FFFEF9F07AF07BF071A
:1019700051F00196A11DB11DEDA1FEA186879787AB
:10198000A08BB18B25824FA258A669A67AA6EDA19D
:10199000FEA1828D938DA48DB58D2FA138A549A56B
:1019A0005AA5281739074A075B0708F4ADCF898184
:1019B0009A8131E0831A9108A108B108DC011A96D6
:1019C0008D929D92AD92BC921D974BA55CA56DA585
:1019D0007EA50E946501882339F08CC011FF02C0EA
:1019E00080FD74C033FE03C0B32DB0623B2EE9818D
:1019F000FA8182A993A9A4A9B5A9F701828F938F2F
:101A0000A48FB58FD78EC68ED70114963C92A9802D
:101A1000BA80B601C5010E94A500F70166877787E5
:101A2000808B918BF601848D958DA68DB78DF701F6
:101A300082879387A487B5871682178210861186BE
:101A4000168A178A108E118EB182A082D501169641
:101A50008D919C9117979383828380E04BC089E09E
:101A600049C0412F4C71C9F586E033C0812F8C717C
:101A700009F0F7CE39C0412F4C7109F0B1CE29C021
:101A8000B32DB8603B2ECB88DC88882309F4F1CED7
:101A900020C04F85588969897A8989819A810E94F5
:101AA000650181111BC0C3CE87E001C088E0882397
:101AB00009F498CF1FC082E005C082E003C082E035
:101AC00001C081E0882309F48FCF14C087E001C0F2
:101AD00084E0882309F498CF0DC086E0E32DE86008
:101AE0003E2ECB88DC88F5CFD6011B968C9184FDE9
:101AF000EFCF74CFAE960FB6F894DEBF0FBECDBF5A
:101B0000DF91CF911F910F91FF90EF90DF90CF90D9
:101B1000BF90AF909F908F907F906F905F904F900D
:101B20003F902F9008952F923F924F925F926F9225
:101B30007F928F929F92AF92BF92CF92DF92EF925D
:101B4000FF920F931F93CF93DF93EC014B016A0138
:101B50005901F901118210820E949E01811174C104
:101B60008C8188230CF46DC181FF6DC18A859B85B2
:101B7000AC85BD85AC01BD014C0D5D1D611D711DA8
:101B8000481759076A077B0708F445C1C114D104F7
:101B900009F441C14E815F8168857985DB01CA0105
:101BA0009170AA27BB27892B8A2B8B2B09F0EBC0BE
:101BB000E881F98112811150DB01CA01072E79E019
:101BC000B695A795979587957A95D1F7702D182397
:101BD000F1F5452B462B472BA1F46E857F8588892F
:101BE00099896115710581059105C1F440E050E0C6
:101BF000BA01CF010E94A5076E877F87888B998BDA
:101C000007C04A895B896C897D89CF010E94A5073D
:101C1000611571058105910509F4FDC061307105FB
:101C20008105910529F48C8180688C8382E00CC148
:101C30006F3FFFEF7F078F079F0729F48C81806834
:101C40008C8381E001C16A8B7B8B8C8B9D8BE881BF
:101C5000F98142A953A964A975A98E899F89A88D84
:101C6000B98D481759076A077B0751F4CF010E94C5
:101C7000F900882329F08C8180688C8381E0E4C09E
:101C8000288039804A895B896C897D89C1010E94DD
:101C9000BD04611571058105910529F48C81806869
:101CA0008C8382E0D1C02B013C01410E511C611C90
:101CB000711C7601EF2CFF24E694E114F10409F481
:101CC00041C0F1014281242F30E0C701810F911DF5
:101CD0002817390718F47901E11AF1080E2DA3012C
:101CE0009201B401F10181810E949114882329F0AD
:101CF0008C8180688C8381E0A7C0E881F98182A90A
:101D000093A9A4A9B5A984199509A609B709A7019A
:101D100060E070E084179507A607B70778F4982F5E
:101D20008827990FB401680F791F40E052E0CF0176
:101D3000C6960E947900E881F9811482FE2CEE2477
:101D4000FF0C50C04E815F81688579858A859B85AF
:101D5000AC85BD85481759076A077B0780F0C1012C
:101D60000E94F900882329F08C8180688C8381E0AF
:101D70006BC0E881F98142AA53AA64AA75AA4E8A67
:101D80005F8A688E798E2E813F81317080E092E08B
:101D9000821B930B76018C159D0508F47C014E89FE
:101DA0005F89688D798D888199810E94650188237A
:101DB00029F08C8180688C8381E046C08E819F8170
:101DC000A885B9859170AA27BB27C6962881398135
:101DD000A701B401820F931F0E947900E881F98165
:101DE00021E024838E0C9F1C8E819F81A885B9855C
:101DF0008E0D9F1DA11DB11D8E839F83A887B9875E
:101E0000F501808191818E0D9F1D91838083CE1875
:101E1000DF0809F0BFCE8E819F81A885B9854A85EC
:101E20005B856C857D85481759076A077B0720F419
:101E30008A879B87AC87BD878C8180628C8380E09A
:101E400003C082E001C087E0DF91CF911F910F9125
:101E5000FF90EF90DF90CF90BF90AF909F908F90CA
:101E60007F906F905F904F903F902F9008950F93C9
:101E70001F93CF93DF93EC010E949E01982F811155
:101E800091C08C8185FF8EC04A8D5B8D6C8D7D8D60
:101E9000888199810E946501982F811183C00E8DE0
:101EA0001F8DF8018385806283878A859B85AC8539
:101EB000BD85848F958FA68FB78F8E859F85A889C6
:101EC000B989938F828FB58BA48B0E948918F801F2
:101ED000668B778B808F918F138A128A8C818F7D8E
:101EE0008C83E881F98181E084830990D881C02DB9
:101EF000CE010E94F900982F811154C0888183304F
:101F000009F046C08D81882309F442C01AAA1BAA91
:101F10001CAA1DAABE016A5C7F4FFB01CE018A5C30
:101F20009D4F1192E817F907E1F785E59AEAFE015E
:101F3000EC5CFD4F9183808382E592E5A1E6B1E4FC
:101F40008EAB9FABA8AFB9AF82E792E7A1E4B1E651
:101F50007A9780839183A283B3838E859F85A88996
:101F6000B989349680839183A283B3838A859B85C4
:101F7000AC85BD85349680839183A283B3832A89FF
:101F80003B894C895D8901E089810E9491141D8201
:101F900040E050E060E089810E94FD1491E08111F1
:101FA00001C090E0892FDF91CF911F910F9108958B
:101FB000CF93DF93EC010E94370F811102C0198289
:101FC0001882DF91CF910895CF93DF9300D000D096
:101FD0001F92CDB7DEB7FB018B839E012F5F3F4F72
:101FE00041E050E0BE016D5F7F4FCF010E94930D35
:101FF00089819A81019719F08FEF9FEF02C081E0EC
:1020000090E00F900F900F900F900F90DF91CF9175
:102010000895EF92FF920F931F93CF93DF93EC01FC
:102020008881882391F08B012196E12CF12CB80155
:102030000E94E40F8F3F2FEF920751F08FEFE81AC5
:10204000F80A89918111F3CF02C0E12CF12CC7016C
:10205000DF91CF911F910F91FF90EF9008952F92F4
:102060003F924F925F926F927F928F929F92AF9228
:10207000BF92CF92DF92EF92FF920F931F93CF9375
:10208000DF93CDB7DEB766970FB6F894DEBF0FBE0D
:10209000CDBF4BA45CA46DA47EA49E01215D3F4FE7
:1020A0003E8B2D8B83010F5F1F4FD3018C918823B3
:1020B00009F4C8C1E12CF12C212C312C08C083017A
:1020C0000F5F1F4FF3018081882309F4ECC1853233
:1020D00039F0B2010E94E40F019609F0ABC1A2C130
:1020E000D3011196BC90B0E3BB1209C0F301B280DA
:1020F00093012D5F3F4F39019924939411C03DE224
:10210000B31629F042E0640E711C912C09C0D30172
:102110001296BC90F30133963F016894992491F88C
:1021200080ED8B0D8A30F0F400E010E08B2D9801EB
:10213000220F331F000F111F000F111F000F111F5F
:10214000020F131F080F111D00531109FFEF6F1A23
:102150007F0AF3013197808190ED980F9A3038F320
:10216000B82E02C000E010E08B2D8F7D8C3441F43E
:10217000292D2460922ED301BC90F30131963F01AA
:10218000BB2009F44BC18FE98B0D8A3118F420EE86
:102190002B0D01C02B2D822F90E0FC01E254F109A0
:1021A000E731F10508F065C0EC5CFF4F0C94B01806
:1021B000ED89FE89A080B1809F012E5F3F4F3E8B4D
:1021C0002D8BD5018C91882359F0F5013196C12CC6
:1021D000D12CBFEFCB1ADB0A81918111FACF02C05B
:1021E000C12CD12C91FC18C0C6010196C016D10695
:1021F000B0F4E12CF12CB20180E20E94E40FE80E71
:10220000F91EEFEFCE1ADE0AC016D106A0F3680160
:10221000FFEFCF1ADF0A06C0E12CF12C03C06C01DE
:10222000E12CF12CB201C5010E940910E80EF91E43
:10223000C016D10660F4B20180E20E94E40FE80EFD
:10224000F91E2FEFC21AD20AC016D106A0F30196CA
:1022500009F0DCC0E7C00D891E890E5F1F4FB20177
:10226000AD89BE898C910E94E40F7C011E8B0D8B81
:10227000CDC0B2018B2D0E94E40F7C01C7C092FE3D
:102280000FC0AAE001C0A0E1ED89FE8960817181E3
:10229000828193813496FE8BED8B243441F51BC0F3
:1022A000AAE0243471F4ED89FE89608171819F0177
:1022B0002E5F3F4F3E8B2D8B072E000C880B990B0A
:1022C0000AC0ED89FE896081718180E090E03296DC
:1022D000FE8BED8B0CC0992354F4909580957095EE
:1022E00061957F4F8F4F9F4FF92DF8609F2E9E0174
:1022F0002F5F3F4F7901C12CD12C2A2F30E040E0D5
:1023000050E0298B3A8B4B8B5C8B2B2D5801092D80
:10231000122F29893A894B895C890E948E18F62FE1
:10232000E62F622F732F842F952FFA3030F0183755
:1023300011F0E7E001C0E7E2EF0F3FEFC31AD30A65
:10234000E05DD701ED937D01611571058105910572
:1023500021F0B0E1CB16D104E1F6902E850193FE79
:102360000CC0E1E0F0E0EC0FFD1FEC0DFD1D2DE2D7
:102370002083A6014F5F5F4F6A0190FC03C050E2CB
:10238000598B02C080E3898B91FC17C046019FEFF7
:10239000891A990AC016D10608F45EC0E12CF12C06
:1023A0000FC0AFEFAA1ABA0AA016B10608F44DC0C2
:1023B0004801BFEF8B1A9B0A03C04601E12CF12CA8
:1023C000AA24A394B12CAC0EBD1EAC0CBD1CE1E044
:1023D000CE1AD108B201D5018E915D010E94E40FA1
:1023E000E80EF91EC114D10491F78016910660F42D
:1023F000B20180E20E94E40FE80EF91EBFEF8B1AD3
:102400009B0A80169106A0F3019661F02E0C3F1CEA
:10241000FFEFEF16FF0609F052CE04C0EF20E09464
:1024200009F041C022242A94322C3DC092FC2BCFCB
:10243000A0E147CF3FEF231A330A3801EE24E3949B
:10244000F12C3DCE212C312C2EC0B201892D0E94C1
:10245000E40FE80EF91EA5CFB20189890E94E40FAE
:102460007C01560199889DCFAD89BE896D917D9182
:102470008D919C9113971496BE8BAD8BA2E037CFB4
:1024800092FCF2CFA2E00DCFED89FE8960817181CF
:10249000828193813496FE8BED8BA8E028CF92FC4D
:1024A000F3CFA8E00ECFC10166960FB6F894DEBF59
:1024B0000FBECDBFDF91CF911F910F91FF90EF9095
:1024C000DF90CF90BF90AF909F908F907F906F9054
:1024D0005F904F903F902F9008951CBC84B1837DF6
:1024E00084B985B1837D85B908958EBD0DB407FE8D
:1024F000FDCF8EB508952A9A8FEF0E947512089528
:102500002A988FEF0E94751282E3809334018FEF37
:102510000E9475128F3F49F0809134018111F7CFED
:102520000E947B1280E090E0089581E090E00895A1
:102530000F931F93CF93DF93EC018B0184E1809382
:1025400035018FEF0E9475128F3F39F4909135015C
:102550009111F7CF80E090E020C08E3FE1F48FEF43
:102560008EBD0DB407FEFDCF9EB598838EBD0DB414
:1025700007FEFDCF22969EB5FE0131979083025053
:10258000110971F78FEF0E9475128FEF0E9475127B
:1025900081E090E002C080E090E0DF91CF911F9158
:1025A0000F910895FF920F931F93CF93DF93C82F3E
:1025B000D42F152F062FF72E88234CF440E050E03F
:1025C000BA0187E30E94D2128230B0F5CF770E9421
:1025D0007B120E948012892B29F18C2F80640E942B
:1025E00075128F2D0E947512802F0E947512812FF7
:1025F0000E9475128D2F0E947512CC23C9F0C8302D
:1026000099F081E00E947512CC3019F48FEF0E948E
:102610007512CAE08FEF0E94751288236CF4C150C6
:10262000C9F70AC08FEF08C087E80E947512F1CF82
:1026300085E90E947512EDCFDF91CF911F910F9127
:10264000FF9008951F93CF93DF93EC01162F92E331
:10265000909334018FEF0E9475128F3F31F090916B
:1026600034019111F7CF80E02AC0812F0E947512AA
:102670001D3F19F19E013E5F88818EBD0DB407FE9E
:10268000FDCF2296FE01319780818EBD0DB407FEED
:10269000FDCFC217D30781F78FEF0E9475128FEF1E
:1026A0000E9475128FEF0E947512282F2F7181E002
:1026B00090E0253021F080E002C081E090E0DF91E1
:1026C000CF911F910895CF92DF92EF92FF920F93D7
:1026D0001F93CF93DF9300D000D0CDB7DEB7811129
:1026E000ACC00E946D128091000181FF03C08091F7
:1026F0000001B0C085B18C6085B984B18C6284B9A9
:1027000082E58CBD91E09DBD8CBD1AE08FEF0E94EB
:1027100075121150D9F740E050E0BA0180E00E94F4
:10272000D212813009F091C084E6809335014AEAE3
:1027300051E060E070E088E00E94D212813009F040
:1027400043C0CE0101966C017E0195E0E90EF11CBB
:1027500086018FEF0E947512F80181938F01EE15AB
:10276000FF05B9F78B81813009F06FC08C818A3AFF
:1027700009F06BC080913501882349F040E050E0BA
:1027800060E070E489EA0E94D2128111F3CF809157
:102790003501882309F459C040E050E0BA018AE3CA
:1027A0000E94D212811151C0760114E01C0D8FEFEE
:1027B0000E947512F70181937F011E13F8CF898162
:1027C00086FD3DC084E03CC040E050E0BA0189EAAB
:1027D0000E94D212823018F001E011E002C002E043
:1027E00019EA90913501992341F040E050E0BA0197
:1027F000812F0E94D2128111F4CF8091350188235C
:1028000021F140E052E060E070E080E10E94D212ED
:1028100081111BC0009333010E947B12002341F001
:10282000809100018E7F8093000180E58CBD02C005
:102830000E946D12809100010DC081E00BC08CE000
:10284000809333010E947B12EBCF109233010E94E0
:102850007B12EECF0F900F900F900F90DF91CF91E2
:102860001F910F91FF90EF90DF90CF90089581110D
:1028700003C080910001089581E008950F93CF93E4
:10288000DF93EB01811144C0002309F443C0809120
:10289000000180FD41C08091330183FD09C0012EFC
:1028A00019E0220F331F441F551F1A95D1F7102D21
:1028B000013081F4BA01A90181E10E94D212811193
:1028C00020C060E072E0CE010E949812892BC9F00E
:1028D00000E017C0BA01A90182E10E94D212811161
:1028E00010C060E072E0CE010E949812892B19F0AE
:1028F000DE5F0150B1F740E050E0BA018CE00E9489
:10290000D2120E947B1281E0011107C080E005C055
:1029100084E003C084E001C083E0DF91CF910F9198
:102920000895CF92DF92EF92FF920F93CF93DF93B0
:10293000EB0169017A01811151C0002309F450C0F3
:102940008091000180FD4EC08091000182FD4CC04D
:102950008091330183FD09C00B2EB9E0CC0CDD1C46
:10296000EE1CFF1CBA95D1F7B02D013079F4B701F8
:10297000A60188E10E94D212811129C06EEFCE011A
:102980000E942213892B19F100E021C0867039F0D2
:10299000402F50E060E070E087E90E94D212B7015A
:1029A000A60189E10E94D212811111C06CEFCE0103
:1029B0000E942213892B19F0DE5F0150B9F76DEFE9
:1029C00080E090E00E942213892B09F401E00E942C
:1029D0007B1281E0011109C080E007C084E005C0DE
:1029E00084E003C083E001C082E0DF91CF910F91CA
:1029F000FF90EF90DF90CF900895EF92FF920F93AA
:102A00001F93CF93DF93CDB7DEB760970FB6F894DF
:102A1000DEBF0FBECDBF811199C17A01653081F44F
:102A2000FA018081882319F0813029F091C10E9438
:102A30006D1280E090C181E0FA01818380E08BC15A
:102A40008091000180FD86C1062F10E00F30110536
:102A500008F063C1F801E55BFF4F0C94B0180E94C9
:102A6000801211E0892B09F46DC110E06BC140E0C8
:102A700050E0BA0189E00E94D212811150C160E198
:102A800070E0CE0101960E949812892B09F449C189
:102A900089818295869586958370813031F5888508
:102AA0008F7390E0A0E0B0E0DC01992788270196C1
:102AB000A11DB11D298530E0322F22274A85240F20
:102AC000311D820F931FA11DB11D072E7AE0880FC3
:102AD000991FAA1FBB1F7A95D1F7702DF70180832C
:102AE0009183A283B38310E02DC129852295269579
:102AF000269523708885F4E08F9FC0011124820FF2
:102B0000911D9C012F5F3F4F8F81837090E0982F24
:102B10008827990F990F820F931FA0E0B0E03E81A4
:102B20003F702B85221F2227221F320F2A852370F8
:102B3000220F230F275004C0880F991FAA1FBB1F05
:102B40002A95D2F7F70180839183A283B38310E0A3
:102B5000F9C01091330112FF2EC040E050E0BA01DD
:102B60008DE80E94D2128111DEC08FEF0E94751293
:102B700060E170E0CE0101960E949812892B09F461
:102B8000D4C010E38FEF0E9475121150D9F72B8536
:102B900022952F7080E190E0A0E0B0E004C0880FA3
:102BA000991FAA1FBB1F2A95D2F7F7018083918333
:102BB000A283B383C7C040E050E0BA0189E00E941D
:102BC000D2128111B4C060E170E0CE0101960E9482
:102BD0009812892B09F4ADC011FF20C08C85881F85
:102BE0008827881F90E001962B852F73820F911DF7
:102BF000820F911D2E8522952695269523702150B2
:102C000002C0880F991F2A95E2F7A0E0B0E0F70113
:102C100080839183A283B38310E094C08C85282F96
:102C2000237082958695877090E0F8E02F9F800D45
:102C3000911D112401962B852C7730E03595279531
:102C4000359527952F5F3F4F829FA001839F500DA1
:102C5000929F500D1124CA01A0E0B0E0F7018083DB
:102C60009183A283B38310E06DC080913301FA0198
:102C7000808310E067C040E050E0BA0189E00E9424
:102C8000D212811158C060E170E0C7010E94981211
:102C900011E0892B09F456C010E054C040E050E028
:102CA000BA018AE00E94D212811147C060E170E04F
:102CB000C7010E94981211E0892B09F443C010E06B
:102CC00041C040E050E0BA018AE30E94D212811173
:102CD00036C08701F4E0EF0EF11C8FEF0E947512F1
:102CE000F80181938F01EE15FF05B9F710E02AC0B6
:102CF00040E050E0BA018DE80E94D212811121C05B
:102D00008FEF0E94751260E470E0C7010E94981274
:102D100011E0892BB9F010E015C014E013C011E0E8
:102D200011C011E00FC011E00DC011E00BC011E0A7
:102D300009C011E007C011E005C011E003C011E0B7
:102D400001C011E00E947B12812F05C084E003C006
:102D500084E001C083E060960FB6F894DEBF0FBE3A
:102D6000CDBFDF91CF911F910F91FF90EF9008950C
:102D700080913501882319F081508093350180912D
:102D80003401882319F0815080933401809100012F
:102D90001D9B02C0846001C08B7F1C9902C08D7F87
:102DA00001C083608093000108951092C50080E106
:102DB0008093C400E2ECF0E0808186608083E6E3EB
:102DC000F1E0158214821382128211821082ECE7E4
:102DD000F1E0158214821382128211821082E1ECDA
:102DE000F0E080818869808308951F920F920FB66A
:102DF0000F9211242F938F939F93AF93BF93EF93D1
:102E0000FF932091C60080913A0190913B0180345C
:102E100098F48F5F90E0E6E3F1E09583848380810E
:102E200091819927DC01AA5CBE4F16962C930196DE
:102E30008F73992791838083FF91EF91BF91AF9119
:102E40009F918F912F910F900FBE0F901F9018950B
:102E50001F920F920FB60F9211242F933F938F93CF
:102E60009F93AF93BF93EF93FF93809180019091D5
:102E700081018823C9F02FEF280F822F90E0ECE723
:102E8000F1E095838483828193819927DC01A458A2
:102E9000BE4F16963C913093C60001968F739927CA
:102EA00093838283211103C088E98093C100FF913D
:102EB000EF91BF91AF919F918F913F912F910F9083
:102EC0000FBE0F901F901895CF93C82F8A3019F41A
:102ED0008DE00E946417E0ECF0E0908195FFFDCF5B
:102EE000C093C60080E090E0CF910895ECE7F0E059
:102EF000808180648083EAE7F0E080818768808356
:102F000080818860808380818064808308951F929F
:102F10000F920FB60F9211242F933F934F935F930D
:102F20006F937F938F939F93EF93FF9386B58093D7
:102F300020049091C901981728F4282F291B209369
:102F4000C80104C0282F291B2093C8019091C801F3
:102F50004091C4015091C5016091C6017091C701B3
:102F6000490F511D611D711D4093C4015093C5014E
:102F70006093C6017093C7018093C9018091C2011B
:102F80009091C3012091780030917900FC01EE0FFF
:102F9000FF1FEF5DFB4F318320830196811522E0F7
:102FA000920729F09093C3018093C20104C010924C
:102FB000C3011092C201FF91EF919F918F917F9178
:102FC0006F915F914F913F912F910F900FBE0F9096
:102FD0001F90189585B5836085BD16BC0895E1EBFB
:102FE000F0E08081876080831092B20008951F9284
:102FF0000F920FB60F9211242F933F934F935F932D
:103000006F937F938F939F93AF93BF93EF93FF93B0
:103010000E94B816FF91EF91BF91AF919F918F9150
:103020007F916F915F914F913F912F910F900FBEC4
:103030000F901F9018951092C3011092C201109228
:10304000C4011092C5011092C6011092C7011092DE
:10305000C8011092C901109220048BE98093B3003B
:1030600082E08093700082E88093B0000E9476171F
:103070000E94EA170E94EF170E94D51678946AEC16
:1030800071E080E00E94970B81110EC048E06EE174
:1030900071E080E094E00E94AD0B811105C061E019
:1030A00071E083E40E946417C0E0D0E00F2EF9E2E3
:1030B000EF2EF1E0FF2EF02D00E014E0A12CB12C5A
:1030C0001CC0FE01EE0FFF1FEF5DFB4F81818F9350
:1030D00080818F93FF92EF921F930F930E942F1086
:1030E00021960F900F900F900F900F900F90C11599
:1030F00082E0D80711F4CA2DDB2DC090C201D09018
:10310000C301CC15DD05E9F6C8010E94D80FE60120
:10311000F4CF60E070E687E792E40895A1E21A2E0A
:10312000AA1BBB1BFD010DC0AA1FBB1FEE1FFF1F6B
:10313000A217B307E407F50720F0A21BB30BE40BBB
:10314000F50B661F771F881F991F1A9469F7609502
:103150007095809590959B01AC01BD01CF010895BC
:10316000EE0FFF1F0590F491E02D09940E94C11805
:10317000A59F900DB49F900DA49F800D911D1124CB
:103180000895A29FB001B39FC001A39F700D811D40
:103190001124911DB29F700D811D1124911D089560
:0431A000F894FFCFD1
:1031A400010000000200000000641700000000227B
:1031B4002A2B2C3A3B3C3D3E3F5B5D7C7F00726595
:0E31C400636F72642E7478740025750A000023
:00000001FF
