:100000000C9434000C943E000C943E000C943E0082
:100010000C943E000C943E000C943E000C943E0068
:100020000C943E000C943E000C943E000C943E0058
:100030000C943E000C943E000C943E000C943E0048
:100040000C943E000C943E000C943E000C943E0038
:100050000C943E000C943E000C943E000C943E0028
:100060000C943E000C943E0011241FBECFEFD8E04C
:10007000DEBFCDBF0E944A000C9463000C940000C8
:1000800014B881E087B91AB88FEF85B99EEF98B997
:100090008BB908950E9440008FEF98B188B92FEF77
:1000A00030E792E0215030409040E1F700C000007E
:1000B00040982FEF30E792E0215030409040E1F738
:0A00C00000C00000EACFF894FFCF63
:00000001FF
